:020000040000fa
:10000000f07f0020392300004f2100002f26000040
:1000100000000000000000000000000000000000e0
:100020000000000000000000000000006f1200004f
:1000300000000000000000006f1200001d280000fa
:100040006f1200006f1200006f1200006f120000ac
:10005000f12200006f1200006f1200006f1200000a
:100060006f1200006f1200006f1200006f1200008c
:10007000ed0800006f1200006f12000081270000e1
:100080006f1200006f120000412800006f12000084
:100090006f1200006f1200006f1200006f1200005c
:1000a0006f1200006f1200006f1200006f1200004c
:020000040000fa
:1000b000f8b5c046f8bc08bc9e467047d122000087
:1000c000f8b5c046f8bc08bc9e467047a92200009f
:020000040000fa
:1000d000f0b59bb013930b6815900d934b6812917c
:1000e00004938b680e930b691893cb68069313687f
:1000f0000b9353680b98089300220023089902f091
:1001000006fa00280dd10d9b5b073ad408200d9b01
:1001100003400c930e9b07930c9b002b0fd02023c6
:1001200006e0802212069446089b634408932d2320
:10013000069a13700e9b013b079301230c93089bb7
:100140000b995b005b08984a00291ed193421cd191
:10015000069c139ba4460c9a413b624493491000b1
:10016000192b10d802f0e6fc069802f0abfc0d9bb0
:100170000200009306990e9b159801f06bfe1bb0d0
:10018000f0bd2b23d4e70431ece7934203d810d120
:100190000b9b002b0dd0069c139ba4460c9a413b55
:1001a000624482491000192b01d80831dae70c317a
:1001b000d8e7002200230b98089902f09efa002647
:1001c0007b4f002833d000230393139802f092fc56
:1001d000c3b20f93049b002b00dae8e10f9b0a9354
:1001e000672b00d0f1e0049b002b00d1dae1039be8
:1001f000043304db039b049a934200dae0e06523b6
:10020000f9e026002f00039b013303930022694b82
:100210003000390000f082ff0b9a089b04000d00ab
:1002200002f056f90028ecd00024012524e00390c8
:10023000ece7039b1a00604b9a4212da002c10d1b3
:1002400000225e4b0b98089900f068ff00220b908b
:10025000089130003900594b00f060ff2c00060077
:100260000f00544b30003900002201f033fa060031
:100270000f00039b013b039332003b000b9808994e
:1002800002f045f90028d4d19fe700230024109301
:100290001194fee0089609970a9b039d652b00d0f8
:1002a00019e1002517e1002f0ad1002d08da2e23cd
:1002b000069a149901365354079b0137013b079363
:1002c000a21933009446302102e0069ad15401333a
:1002d0009c45fad1079aa319141b069a30305e1c6c
:1002e000d054631e0793002421e0129b14961b69cf
:1002f0000493053bb34200d8f7e0089a099b0b989a
:10030000109901f0e7f901f001fb0490059102f06a
:10031000c3f9092800dd092010230d9a1340034377
:10032000c1d10f9b672bbed1002dc9da01348020cb
:100330000006844610990b9a61440b0004980599b5
:1003400000920193089a099b02f0ccfb80231b06c4
:10035000cb180b901093089809990022154b01f0c7
:10036000b9f9013d08900991bbe00d9bdb0600d473
:10037000bee02e23069a93550136b9e00398390062
:1003800001f0c0fb069b3031013c19550398390040
:1003900001f06efb079b0390013b0793bfe0069ab9
:1003a000125c1a540138ede00000f07fa42a00002e
:1003b0000000f03f00002440d4feffff0000504347
:1003c000039b002b16da66230a93049b01330493e4
:1003d0000a9b662b10d1039b002b03da0023002617
:1003e000764f03930f9b672b04d0039a049b94468c
:1003f0006344049366230a930023109611970b9d80
:10040000089c1493109a119b2800210001f062f9b6
:1004100001f07cfa1690179102f03ef980212a0033
:100420000906631819900092019316981799109a6b
:10043000119b02f057fb80231b06cc180022604b57
:1004400005001098119901f045f9149b1090119135
:1004500001331493149a049b9342d3d10022594b35
:1004600000f05cfe1090119102000b0028002100aa
:1004700002f04df8002800d007e7109a119b2800e1
:10048000210002f03af9002803d0199bdb0700d4c1
:10049000fbe6109a119b0b98089900f03ffd002293
:1004a0000b901091464b3000390000f037fe0b9a4c
:1004b000109b0890099101f0a9ff002800d1e9e6fe
:1004c000039b013303930a9b662b00d0e4e6049b55
:1004d000039d0133049300242700049b0c9eeb1a18
:1004e0001693169b9d4200d0ffe6002f00d13ce7fb
:1004f0000025069b9b1904931d700a9b652b31d127
:10050000189b5c1e069b1d55039bab4202da5b42a7
:100510000393013503230a27189a9b1a0893039b18
:10052000002b00d02ae7089b1b19002b00dd25e7d4
:10053000621e2d23002d00d1023b0699023c8b54f4
:10054000139b413b192b01d845230a93069b19198c
:100550000a9b0b70079b023b0793a64202da0498a2
:1005600002f0e8fa03230d9a1340022b00d0fbe5ba
:10057000079b002b00dcf7e5069802f0a3fa069b28
:10058000079a9b180c9a824200dc08e71300069a2f
:100590003021944663441800079a02f08bfa002336
:1005a0000e93e1e50123049321e60623fbe70f9b6d
:1005b000672bfad00a930623049306e70000f03f66
:0805c00000002440000014407b
:020000040000fa
:1005c8000023f0b506001500afb005910193059919
:1005d8000b78002b00d10fe101235b420a930eab8d
:1005e80000240c93802309940b940d930b5d002b2e
:1005f80001d0252b2ad1002c06d02200300001f092
:10060800dbff059b1b190593059b1a78252a00d04b
:10061800e7e0013302930593022310219c46082743
:10062800059803782b2b1bd025d8202b1bd0232be8
:100638001dd02a2b2ad001f027ff0b90059b1a7892
:10064800303a092a33d801330593f7e70134cde767
:100658000122099b80180393134309930590dfe750
:100668000423099a0ee0099b03933b430be0099b83
:1006780003930b4307e02d2bead0302bd9d16246e8
:10068800099b0393134309930130e7e72b68013073
:100698001a1d1b6805902a600b93002b07da099a2c
:1006a8005b420392012203990b934a400992099bea
:1006b800da0702d5022293430993059b1a782e2a5a
:1006c8000ed10022581c0a9205905a782a2a28d15d
:1006d800023305932b681a1d1b682a6003930a933b
:1006e80005a801f0bbff059b0700187802f0fef98a
:1006f800692800d183e035dc632800d1d6e01bdc13
:10070800252800d1dfe0612859d0252306aa1370d7
:10071800029b0593002309930b93013b0a93023331
:10072800b2e001f0b1fe0a90059b1a78303a092a26
:10073800d6d801330593f7e7642860d06728e4dc4e
:100748002a00390006a802f002f8002800d1a9e022
:10075800059b09a95a1c05921b7806aa3000fff7c9
:10076800b3fc3de0702800d17de016dc6e2800d196
:1007780091e06f28c9d12b000022390006a801f0aa
:1007880007f8002800d18de0059b06aa013309a9c6
:100798003000059302f0eef922e0752840d0782861
:1007a8004fd07328b1d1802f00d07be0059b2a68f9
:1007b80001330593131d2b601268002364e02a009f
:1007c800390006a801f0c3ff002800d16ae0059ba4
:1007d80009a95a1c05921b7806aa300002f0ccf928
:1007e8002418019b1c19a34200dc74e04f223b4be8
:1007f8001a6001235b42019301982fb0f0bd2b00d2
:100808000122390006a800f0c3ff00284ad0059b42
:1008180006aa013309a93000059302f0abf9dfe716
:100828002b000022390006a800f0b2ff002839d0ba
:10083800059b06aa013309a93000059302f09af92d
:10084800cee72b000022390006a800f0a1ff0028ff
:1008580028d0059b5a1c05921b7806aa09a93000c6
:1008680002f08af9bce72b000022f02106a800f06c
:100878008fff002816d0059b079a01330593069b26
:10088800134306d1164a163209a9300001f0e0fcdc
:10089800a6e77823e1e7019b39001a1906a82b007f
:1008a80001f0bafb059b013305939ae7802ff9d134
:1008b800059b013305932b681a1d1b682a6006aa3d
:1008c80013700123e0e7802fecd1059b06aa0133c2
:1008d80005931070f5e7019479e6c0462c0d0020c9
:0408e800942900004f
:020000040000fa
:1008ec00f0b5de4657464e464546e0b583b07f4be5
:1008fc009b7d002b00d1f1e07c4a137edbb2927d14
:10090c0052b2002a18db794a137edbb2927dd207f1
:10091c0000d4d6e0db0700d4d3e0754c754b984679
:10092c00734b1b699946724b187d704a01239b4689
:10093c0007256b46991d30e05bb2002be3da6b4b5d
:10094c005b8b07221340ded0694ad387674b80222a
:10095c001a76793a5a831b7e5b0705d5634b0421c3
:10096c001a8d1a7e0a42fbd1614b1b6a002bcad02e
:10097c005f4a516a02209847c5e75f00bc4647466c
:10098c006646be5d0e70c444664676784e70013382
:10099c0016e00b78138500281ed1137e5e46334279
:1009ac0000d18ee0a3689c46e3689c4500d185e0ad
:1009bc0057682f40012fe0d04e4fff5c0f70013372
:1009cc004b45bf413b404a4ffb6053682b40012bca
:1009dc00dfd10b881385dee702f014f8444b1b685b
:1009ec00002b9dd0424a127f002a08d0404a9269bf
:1009fc00904295d33e4a51680320984790e73c4a71
:100a0c00926990428cd13a4a51680320984787e703
:100a1c004246126a002a23d0696a01209047ab6ac9
:100a2c0001332a6b93429241134019e0304a926a87
:100a3c0031498c542e4a93623423d35c002b22d13f
:100a4c002a4b1b7e5b0749d5284b1c8da4b2b36a7d
:100a5c000133326b934292411340fa6a9a42d7d0d7
:100a6c00234ad26a9a42ebd0204a516807220a40a4
:100a7c00012adbd11e4a916a49001f4a545452186c
:100a8c00240a5470d6e701f047ff194b1b6a002b60
:100a9c00d6d017493c228a5c002a06d08a6b904239
:100aac00ced3496a00209847cae7114a926b90420c
:100abc00c6d10f4a516a00209847c1e70b4b01225f
:100acc001a750a4a137edbb2927d520706d55b0774
:100adc0004d5074e3700b0463500b1e703b03cbc37
:100aec0090469946a246ab46f0bdc0460014004263
:0c0afc00500c0020000a0020100c00200c
:020000040000fa
:100b0800f0b5ce46474680b58db0684b1b68684a3d
:100b180012689a1a312a06d9654a136065499c22d7
:100b28008020c0058850644a12689a1a132a00d88f
:100b3800b1e0624a012111705f4a1360604b1b7873
:100b4800002b00d1ace05f4b1b78002b00d1a7e055
:100b580000235a4a13705c4a13605c4a13605c4b6a
:100b68001878002814d00022002100240023594eb0
:100b7800594db758bc466444af58bc46614401332c
:100b8800dbb204328342f4d14f4b1c604f4b1960e7
:100b980001f01afe041c514d4b4b186801f0a0fee1
:100ba800211c00f0ffff2860484b186801f098fef0
:100bb800211c00f0f7ff4a4b186001f0c7ff494bb2
:100bc800984601f08dfe296800f0ecff4346186056
:100bd800454e306801f084fe041c01f0b7ff434b1a
:100be800994601f07dfe011c201c00f0dbff404906
:100bf80000f02dfe4b4618603e4f386801f070fe3d
:100c0800041c01f0a3ff01f06bfe011c201c00f086
:100c1800c9ff374900f01bfe374b09901860234b7a
:100c28001868364b1b68c01a01f0a2fe344a354bcf
:100c380000f070fa01f056fa334b186001f0c0fb6f
:100c48000a900b91314c286801f0bafb0690079185
:100c5800099801f0b5fb049005914b46186801f01e
:100c6800affb029003914346186801f0a9fb00907e
:100c780001910a9a0b9b200001f022fe20001c30f3
:100c880001f08efd0023124a13700e4a1370204a99
:100c980032603b6004e0094b1b78002b00d04de725
:100ca8000db00cbc90469946f0bdc046fc0c002027
:100cb800f40c002000440041100d0020320d0020eb
:100cc800330d0020310d0020040d00200c0d0020f4
:100cd800300d00200000002000040020000d00203e
:100ce800080d0020f00c0020580d00201c0d0020dd
:100cf80000007a44f80c0020180d0020200d002078
:100d08007b14ae47e17a843f140d002030260000a2
:040d1800ffffff00da
:020000040000fa
:100d1c00b00c00201c00000000000000000b0020a4
:100d2c00c000000000000000100c0020400000007b
:100d3c0000000000000a002000010000000000007c
:100d4c00500c00204000000000000000cc0c0020e3
:100d5c000c00000000000000d80c0020080000006f
:100d6c0000000000300d0020010000000000000019
:100d7c00f00c00200400000000000000f40c002027
:100d8c000400000000000000f80c0020040000002b
:100d9c0000000000fc0c002004000000000000001b
:100dac00310d00200100000000000000000d0020ab
:100dbc0004000000000000000000002000040000ff
:100dcc0000000000000800200002000000000000ed
:100ddc00040d00200400000000000000080d00209d
:100dec0004000000000000000004002000040000cb
:100dfc00000000000c0d00200400000000000000aa
:100e0c00100d00200400000000000000140d002054
:100e1c000400000000000000180d00200400000079
:100e2c00000000001c0d0020040000000000000069
:100e3c00200d00200400000000000000320d0020f6
:100e4c000100000000000000330d00200100000034
:100e5c0000000000580d00200400000001000000fc
:100e6c00ffffff00340d0020010000000000000017
:100e7c00350d00200100000000000000900c002047
:100e8c002000000000000000e00c00200800000022
:100e9c0000000000240d00200400000000000000f1
:100eac00c00b00205000000000000000380d002096
:100ebc002000000001000000010000000300000001
:100ecc000000000000000000000000000000000016
:100edc0000000000e80c0020e80c002008000000d6
:100eec0000000000280d002004000000000000009d
:100efc002c0d002004000000000000000000000089
:100f0c0000000000444444444444444444444444a5
:020000040000fa
:100f1c00f0b40125ed070f005f405ad48b4200d18d
:100f2c00824205d950404240504059404b405940b4
:100f3c004e18760ddf187f0d3bd0741c640529d03c
:100f4c00f41b352c26d80e0ddb022b43db0ac90211
:100f5c002943c9121700202c1ed2e741e24057400a
:100f6c00e3415a40a340e3405a40002480185941c1
:100f7c000ad3b21c520521d0c207012f62411700bf
:100f8c004008cb0718434908013636054208af41e3
:100f9c0060417141f0bc7047203c06d01f00e74116
:100fac00e3405f400024012a6741c0186141ebd344
:100fbc00dfe7002eeed129400020ebe701363105aa
:100fcc000020e7e7e742e5d10020c143090dc90441
:100fdc00e0e76b400e00871a9e4104d26e40c01ba6
:100fec00b141d21973414e18df18ac0ae642e9d26e
:100ffc00760d7f0d31d0f41b362ccbd8b4460e0dac
:10100c00db022b43db0ac9022943c90a012c32d863
:10101c0004d1d4075208df073a435b08ef0a644255
:10102c00904199411ed0002239424dd124194041a2
:10103c0049410124394204d1013400184941394253
:10104c00fad06246a24204d9361b013e36058919f4
:10105c00a0e7f10ac90700209ce736429ad100208c
:10106c00002197e70200224394d0b842ded201005f
:10107c0020002024e3d1202c13dd203ce24117007a
:10108c00a240e2405740e3415a40a340e3405a405b
:10109c00012fbf410137174300227c4298419141f7
:1010ac000ce01700e741e2405740e3415a40a340af
:1010bc00e3405a407c429041994100220f0303d2f5
:1010cc00013e241940414941013e36054708ac41d7
:0810dc0050417141f0bc704766
:020000040000fa
:1010e40008d1002806d1f54204d801d3002a01d141
:1010f4006d0d09d10020c143090dc904f0bdf9d11a
:101104001242f7d1640df5d00020c14349054908c6
:10111400a6e000206146f0bdf0b50127ff070e00f0
:101124005e403e40b446be0a4c18dd18f442d7d2a5
:10113400f542e4d2640decd06d0dead06419c90215
:101144003943460dc0023143db023b43db0a10b492
:101154008e4685b297b26f43140c6c433e0ca419af
:10116400260c2404bfb227439cb26c43a419190c67
:101174006943250ca4b249190d04090c6419000c27
:1011840095b245433e0c76193743bfb2360c150c65
:101194004543ad19a6b2240cad192e0437432e0cc9
:1011a40036199db24543ad19acb22e0c89191d0cec
:1011b40045436d182e04290c3443704680b295b211
:1011c40045433e0c76193743bfb2360c150c4543e4
:1011d400ad19a6b2ad19240c2e0437432e0c3619c2
:1011e4009db24543ad19acb22e0c89191d0c454373
:1011f4006d182e043443290c75462d0c90b26843a7
:101204003e0c80190604bfb23e43070ca0b23f183f
:10121400120c6a43d019020c80b2240ca4189ab29e
:101224006a43121914042043120c89181b0c6b43d3
:10123400c91810bc01273d05294203d1b619404104
:101244004941013cff077d0d013d641b0bdb6d0033
:10125400ac4209da240500254208be4168416141d7
:0a12640066463143f0bd54e74ee743
:020000040000fa
:02126e00fee799
:020000040000fa
:10127000f0b58fb0c30604d44b4bff229a730fb066
:10128000f0bd4a4e347801f0fffa494d64006053d6
:1012900001f00afb347863005b5b464a12689342b4
:1012a00001d2444a1360444a1268934201d9424a27
:1012b0001360651cedb23d4b1d70404b1b78002b3d
:1012c000ddd03f4b1b78002bd9d0002d6ad0384a97
:1012d0000020002100e019001388c0184b1cdbb26d
:1012e0000232a142f7d101f0fffa041c280001f0fc
:1012f0006ffa011c201c00f059fc041c01f026fcb4
:1013000001f0f2fa0b94211c00f050fc071c294e4e
:10131000306801f0e9fa079001f018fc0890264dba
:10132000286801f0e1fa099001f010fc0a90381cdd
:1013300001f04af80c900d91224f3c0020340b989c
:1013400001f042f8049005910a9801f0cdfa011cd1
:10135000099800f02bfc1c4900f07dfa01f034f8ec
:1013600002900391089801f0bffa011c079800f061
:101370001dfc154900f06ffa01f026f8009001916c
:101380000c9a0d9b200001f09ffa38001c3001f0f0
:101390000bfa0023054a1370084a13700b4a326097
:1013a0002b606ce700209ee7002c0042300d0020ef
:1013b00000080020580d0020f80c0020320d0020fd
:1013c000330d00203026000000007a44ffffff00ac
:020000040000fa
:1013d000334b0e229a821a000223d1680b42fcd0b2
:1013e0002f4b00229a61da642e4a9a644422022129
:1013f000995418004e31413a435c1340032bfbd102
:10140000274a938c80218b4393841023d1680b420d
:10141000fcd0254b1b689b0e3f2b3fd09b028022ac
:10142000920013431e4a93621023d1680b42fcd0f2
:101430001b4b02229a841a001023d1680b42fcd065
:101440001a4b1b4a5a601a0053785bb2002bfbdb25
:10145000164b184a5a601a0053785bb2002bfbdb1c
:10146000124b154a5a60154a9a601a0053785bb2bb
:10147000002bfbdb0d4b124a5a80124a5a80124a4b
:101480005a80124a5a80124a5a80124a5a80124b83
:10149000124a1a62024b00221a627047203bbde7d3
:1014a00000080040f4050e0024608000000c00409d
:1014b000010801000007010002070100021f0000ef
:1014c0000540000007400000174000001a410000de
:1014d0001b4100001d420000000400402289010061
:020000040000fa
:1014e000f0b5de4657464e464546e0b585b0002984
:1014f00000d175e03b4b1f6900249c4699461e00b5
:101500009846029008e03848554685544246936014
:10151000631c0134994253d9344b5a680723134052
:10152000012b19d0b268f568531cbb4280410340bf
:101530009d4246d00298005d82462c4d6868072582
:101540000540012ddfd1520027485546855482467b
:10155000524400255570d9e763469b680193634662
:10156000da68019b0133bb42804103409a4228d094
:101570006200029d681c924602005046125c1202f4
:10158000285c0243150003921848406883460720f0
:101590008246584652461040012807d0124a280079
:1015a000019d50554a469360631cb2e7019a55006d
:1015b0000d4a0398505592465544020a6a70f1e765
:1015c0001c0001f0a1f9002802d0084b01229a75f5
:1015d000200005b03cbc90469946a246ab46f0bd03
:1015e0000c00eee7500c0020000a0020001400421e
:020000040000fa
:1015f0000d0a4d656e7520436f6d6d616e64733ab3
:101600000d00000073202d205374617274202f2070
:1016100053746f7020746865206461746120636f17
:101620006c6c656374696f6e0d00000070202d2076
:1016300050574d2073746172742f73746f700d0066
:101640003f202d205468697320636f6d6d616e6457
:10165000202d207072696e7473206d656e750d0a91
:101660000d0000004d6f746f722050756c73652013
:101670004d6561737572656d656e740d00000000d7
:1016800054696d652853656373292c204672657112
:101690002028487a292c204d696e20506572696f88
:1016a0006420286d73292c204d6178205065726963
:1016b0006f6420286d73292c2041766572616765ff
:1016c00020506572696f6420436f756e740d0a0d4a
:0416d0000000c04610
:020000040000fa
:1016d400f0b40125ed070c005c402c40a446ae0a92
:1016e4004c18df18f4423dd2f74245d2640d4cd079
:1016f4007f0d3cd0e41bc9022943cf0adb022b43f4
:10170400db0a0600b61a9f4104d2013cb6197f4198
:10171400b6185f416812800d241838dd0018844221
:1017240025d8e80c0021b6197f41b61a9f4103d38e
:1017340040414941f7d304e0b6185f4100184941dc
:10174400f1d32405b6197f41b61a9f4105d3374317
:10175400c20717430022012f5041614162461143e1
:10176400f0bc70470cd100280ad1f74208d20020ff
:10177400c143490d0905f1e7002a01d1f74206d01a
:101784000020c143090dc904eae77f0df8d0002009
:041794006146e5e7de
:020000040000fa
:1017980010b588293cd015dc81294dd003dc80297f
:1017a8004ad0002010bd822911d08429f9d11968a6
:1017b800002a26d00a1d1a6000228b5e0360db1700
:1017c800436011e0a02930d010dc9029e9d11968d4
:1017d8000724002a2ed00919a1430a0008321a60ea
:1017e8000b684c68036044600120dbe7c02901d026
:1017f800f029d6d11a68111d1960136803600023f7
:10180800dee70c1d1c600b689bb203604260ebe7cf
:101818001968002a04d00a1d1a600023cb56cde7a8
:101828000c1d1c600b68dbb2efe71a68111d19600c
:101838001368c3e70731cfe71968002a03d00a1de8
:0e1848001a600b68bae70c1d1c600b68dde728
:020000040000fa
:1018560030b405004d400124e407254042004b000a
:10186600120e32d01b0e3cd0ff2a33d0ff2b3fd0b6
:10187600d21800022043000a09022143090ac4b211
:101886004c43000ac3b24b43000a4843210a5b1883
:10189600190a091801d44900013a080a7f3a2adbd5
:1018a600fe2a0fd2d2051c43240601d0012421436f
:1018b600c9b280295041802901d1400840002843ff
:1018c60030bc7047ff20c005f9e71b0eff2b0ad07e
:1018d6002800f5e7400206d1ff2bf3d1490202d1d9
:1018e600f0e7ff2af4d17f2000010c300005e7e77e
:1018f6004902f8d1e6e743020132e9d15b1202332d
:06190600e6d9d805e4e774
:020000040000fa
:10190c004b005b0d264af0b55c1e944238d8254a34
:10191c009e1825d4332e22dc234a9b1827d4234a25
:10192c00da400700214b9743f3403c000f00024084
:10193c009f4319403d000a430fd0002f0dda20239e
:10194c005b42f11824d480204003c840020080215f
:10195c004903f1400b00a4185d4120002900f0bda3
:10196c000020002901db0021f9e71149f7e72022cb
:10197c000e4b921b934001225242f2401a43d0e785
:10198c00002becd10022c90fcb0710001900e6e7a1
:10199c0020218020891b400388400200d7e7c046e5
:1019ac00fd07000001fcffffe1fbffffffff0f0045
:0419bc000000f0bf78
:020000040000fa
:1019c00070b500f0afff002800d170bd244c254d4c
:1019d00028782018012100f09ff82b78e35c1a008a
:1019e000203a5a2a06d8532b11d00cd83f2b21d09d
:1019f000502b0fd01b4b1b780133dbb2202b2ad08e
:101a0000184a1370e1e7702b04d0732bf2d100f069
:101a10009ffbefe7144b1b78002b05d000f0e0ff95
:101a2000114b00221a70e5e700f0ceff0e4b0122a9
:101a30001a70dfe70d4c200000f0b6fe20001430d5
:101a400000f0b2fe20003c3000f0aefe200050302e
:101a500000f0aafecee7034b00221a70b5e7c0469d
:101a6000900c0020340d0020350d0020401f000098
:020000040000fa
:101a7000002941d010b4041c4c40a446012300228c
:101a8000002900d54942002800d5404288422cd385
:101a900001242407a14204d2814202d209011b0180
:101aa000f8e7e400a14204d2814202d249005b007f
:101ab000f8e7884201d3401a1a434c08a04202d3e7
:101ac000001b5c0822438c08a04202d3001b9c0828
:101ad0002243cc08a04202d3001bdc08224300288a
:101ae00003d01b0901d00909e3e7101c6446002c50
:101af00000d5404210bc704701b5002001f042f80b
:101b000002bdc0460029f7d003b5fff7b3ff0ebcf6
:081b10004243891a1847c04640
:020000040000fa
:101b1800f0b5de4657464e464546e0b502001e483b
:101b2800c36a856a002932d0ab4233d0006b844641
:101b380014000120194f1a4eb046013a9246b14698
:101b48000ee04a46d25c5646325401336345924110
:101b58001340884212d2421c0234ab420fd010000c
:101b68007a6807263240012aebd15a004646b65c0d
:101b780026704244527862700133e7e71d00064b35
:101b8800dd623cbc90469946a246ab46f0bd1d00be
:101b98000800f4e70020f2e7500c0020001400428f
:041ba800100c0020fd
:020000040000fa
:101bac0030b405004d400124e407254042004b00b1
:101bbc00120e26d01b0e34d0ff2a2dd0ff2b35d081
:101bcc00d21a000220430902214343084908a00d00
:101bdc005b1a02d2013a5b005b185b008b4200d3ac
:101bec005b1a4041f9d37f3222ddff2a06d2d2059f
:101bfc00c91a8b425041284330bc7047ff20c005a6
:101c0c00f9e71b0e03d0ff2b12d1490210d07f2015
:101c1c0000010c300005efe74002f8d1ff2bedd1ad
:101c2c00f5e7ff2aead14002f1d1e7e74902eed10c
:041c3c002800e1e7b4
:020000040000fa
:101c40001e4b1f4a1a601f4a9a81c02292025a6094
:101c50001a00d369002bfcd1184a136802210b43e8
:101c60001360d369002bfcd1174b00221a629a62d1
:101c7000da6234215a5408315a549a63da871a6066
:101c80009a60da600021197519779a610b4b5a68ce
:101c900007231340012b0ad00b4b40221a639200fa
:101ca0001a61064b80229a757c3a9a757047064bea
:101cb00020221a6360321a61f3e7c0460014004222
:0c1cc000040110402bf6ffff500c002028
:020000040000fa
:101ccc00002934d00123002210b488422cd30124e3
:101cdc002407a14204d2814202d209011b01f8e778
:101cec00e400a14204d2814202d249005b00f8e731
:101cfc00884201d3401a1a434c08a04202d3001b5d
:101d0c005c0822438c08a04202d3001b9c0822438f
:101d1c00cc08a04202d3001bdc082243002803d0cd
:101d2c001b0901d00909e3e7101c10bc704701b571
:101d3c00002000f021ff02bd0029f8d003b5fff709
:0c1d4c00c1ff0ebc4243891a1847c04674
:020000040000fa
:101d58001d4a137801210b43137053785bb2002b93
:101d6800fbdb194904238b610022ca61033b4b60ea
:101d7800cb60164b1a7210321a7520201a540c3088
:101d88001a540c301a540c301a540c301a540c30a3
:101d98001a540c301a540c301a540c301a540c3093
:101da8001a540c301a540c301a540c301a540c3083
:101db8001a540b78022213430b700a0053785bb253
:101dc800002bfbdb7047c04600180040000b0020ca
:020000040000fa
:101dd80010b5002000f038fb0021174800f094fef1
:101de8000021164800f096fe0021154800f098fee4
:101df80000f014fe00f0aefd124c200000f0d0fc04
:101e0800200000f0cdfc2000143000f0c9fc2000b8
:101e18003c3000f0c5fc2000503000f0c1fc200030
:101e2800743000f0bdfc0848103000f0b9fcfef733
:101e380067fefff7c1fdfae7952a0000711200005e
:0c1e4800d11e0000f01500007016000014
:020000040000fa
:101e5400f0b51d00012389b014000e9a06001a4043
:101e64000391029201d1a5420ad8220003993000bd
:101e740000f0a4fba54203d82500280009b0f0bd5a
:101e84002f1b01973a00102f00d91022202104a8fb
:101e940000f00efe019b0f2b0ed80f2204a93a402e
:101ea400300000f08bfb029b002be6d1220003994b
:101eb400300000f083fbe0e7102204a9300000f0ba
:0a1ec4007dfb019b103b0193e4e756
:020000040000fa
:021ece0070475b
:020000040000fa
:101ed00070b5144c2578002000f0aefdad00124b1b
:101ee000e8502578012000f0a7fd104aad00a85069
:101ef000237899008a580e4909688a4201d20c4910
:101f00000a600c4909688a4201d90a490a6001330a
:101f1000044a1370084b1b78002b02d0074b012298
:101f20001a7070bd300d0020000400200000002059
:101f3000580d0020f80c0020320d0020310d00203b
:020000040000fa
:101f40000d0a4d656e7520436f6d6d616e64733a59
:101f50000d00000073202d205374617274202f2017
:101f600053746f7020746865206461746120636fbe
:101f70006c6c656374696f6e0d00000070202d201d
:101f800050574d2073746172742f73746f700d000d
:101f90003f202d205468697320636f6d6d616e64fe
:101fa000202d207072696e7473206d656e750d0042
:020000040000fa
:101fb0000021f0b5174b184a934208d30027174a5f
:101fc00013685168002b05d1002903d1f0bd1970a9
:101fd0000133f1e7100095680c305c18002d16d025
:101fe0000b25ed1a5219a3420ad10b00032213400c
:101ff0005a1e934189085918890040180200dfe7ea
:102000005d1cae5c1e702b00ede71f700133a34218
:10201000fbd1f3e700000020000000201c0d0000b1
:020000040000fa
:1020200010b584291fd007dc812915d0822922d040
:10203000802911d0002010bd90291cd008dc8829ef
:10204000f8d119680c1d1c600b6803601a7010e051
:10205000a02901d0c029edd119680c1d1c600b68a6
:1020600003601a6005e019680c1d1c600b680360b2
:102070001a800120dfe719680c1d1c600b680360e3
:082080001a60d2175a60f4e760
:020000040000fa
:1020880010b5bff35f8f62b6144bc1229200995806
:10209800ff24a143c0200143995010221a60c32194
:1020a80089005a58a24302435a50802252011a60aa
:1020b8005a581202120a000602435a50802212028b
:1020c8001a60c42080001a5805491140c022120421
:1020d8000a431a508022d2021a6010bd00e100e0c3
:0420e800ffff00fff7
:020000040000fa
:1020ec004b1801225205da4217d25b0d0722d2019e
:1020fc009b1a0fd9ff2b13d2db05ca0fd207134340
:10210c000903020d1143490ac200524100d90131a1
:10211c00c8187047c80fc007704706d1002804d1f3
:10212c00c80f0002ff30c00570470123db070a000f
:10213c00c900400f084398431a4010435b0a1843e8
:02214c007047da
:020000040000fa
:02214e00fee7aa
:020000040000fa
:102150000d4b1b78002b03d00b4b00221a707047dd
:10216000094b01221a700023084a1370084a1370a1
:10217000084a09491160094a1360094b1b68094a5a
:102180001360094a1360eae7330d0020300d002088
:10219000320d0020580d0020ffffff00f80c00203a
:0c21a000fc0c0020100d0020200d002081
:020000040000fa
:1021ac0000230e4a10b513600d4a13600d4a1360dc
:1021bc000d4a13600d4a13600d4a536213610133cb
:1021cc00936000f081fc00f010fb0a4c0a4b9c421f
:1021dc0000d310bd08cc9847f8e7c046280d002066
:1021ec00cc0b0020c80b0020c00b0020c40b00201f
:0c21fc00d00b0020bc000000c000000060
:020000040000fa
:1022080010b5124b802212021a614f2206219954ee
:102218004e3a50315a5401315a540021372019543a
:10222800043022241c548020c0055e341851103418
:102238001851c0201a5401301a54dd3299542e3adc
:10224800813898540f32995410bdc046004400415b
:020000040000fa
:10225800f0b50f0087b0039015001049072204a8b5
:102268001c0000f0f9fbbb687e6802933f68002df4
:1022780000d104ad002c03d1280000f01ffc04009d
:10228800002e02dbb44200d934000097029b2200e2
:1022980029000398fff7dafd07b0f0bd742b0000a2
:020000040000fa
:1022a80010b5064c2378002b07d1054b002b02d024
:1022b800044800e000bf0123237010bdb00c0020cb
:1022c8000000000000000000044b10b5002b03d0f4
:1022d8000349044800e000bf10bdc04600000000ec
:0822e800b40c0020000000000e
:020000040000fa
:1022f000f0b5c64600b50e4d00240e4f012398469a
:1023000004e03e6101340c35102c0ed02a7ae3b281
:102310009a42f7d13b694646a6401e42f2d02b684e
:10232000002beed068689847ebe704bc9046f0bd00
:08233000000b00200018004022
:020000040000fa
:1023380010b50a4b98470a4b984700f00bfc094b1d
:10234800ff229343084a9360084b9847084b9847e5
:10235800084b9847fff73cfdfee7c046cf1e00003c
:10236800cf1e00000000000000ed00e0ad210000dd
:08237800cf1e0000cf1e000083
:020000040000fa
:102380000c4b01221a6019008b681a42fcd1094bd0
:10239000094a1a60094a1a62094ada62094a00219e
:1023a0001160802252029a621a009368002bfcd1bd
:1023b0007047c04600200042001000033080030038
:0823c0000ff80f00e00c0020f3
:020000040000fa
:1023c80041008c46012212068a420bd8090938239b
:1023d8001b06c918c30fdb07194340076346da42d7
:1023e80004d27047c10fc9070020704703d13823b2
:1023f8001b06c918704738231b06c9180122d204c6
:0424080011437047c5
:020000040000fa
:10240c0030b401256d054c00e54215d85c00e54261
:10241c0012d80c001c436400044314430fd005d2a3
:10242c0082428b418041013030bc704790429941cf
:10243c008041013030bc7047002030bc7047012017
:04244c0030bc7047e9
:020000040000fa
:1024500010b50e4b06225a60fff7d6fefef7b8ff06
:1024600000f010fbfff7ecfb00f070f800f04afb07
:10247000fff786ff00f09cfa00f0bef9fff76cfc56
:1024800000f082f8fff700fe10bdc046004000419a
:020000040000fa
:10249000030010b51a78202a0dd01100093904293b
:1024a00009d900212b2a02d02d2a01d10131013373
:1024b00000200a2404e00133ece760430133801a72
:1024c0001a78303a092af8d9002900d1404210bdc3
:020000040000fa
:1024d00030b401256d054c00e54215d85c00e5429d
:1024e00012d80c001c436400044314430cd005d2e2
:1024f00082428b418041404230bc704790429941ba
:0e2500008041404230bc7047002030bc704724
:020000040000fa
:10250e0030b401256d054c00e54215d85c00e5425e
:10251e0012d80c001c436400044314430cd005d2a3
:10252e00904299418041404230bc704782428b417b
:0e253e008041404230bc7047002030bc7047e6
:020000040000fa
:10254c000b4b01221a801a00d37b5bb2002bfbdbf6
:10255c00074b60221a80074a1a83074a5a833b2288
:10256c009a731a00d37b5bb2002bfbdb7047c0461f
:0c257c00003c0042c8640000c4090000dc
:020000040000fa
:102588000b4b01221a801a00d37b5bb2002bfbdbba
:10259800074b8022d2001a8030229a710b3a5a8156
:1025a80016329a732b3a5a73024b00221a607047fc
:0825b800002c0042d80c0020a9
:020000040000fa
:1025c000436870b50400d80510d52569954200d937
:1025d00015002a00606900f043fa226963695b19fb
:1025e000551b0022636125611a7070bddb06fcd4a7
:0825f000200000f0a5faf8e755
:020000040000fa
:1025f80013b50b006a46d41d5a68c1b22170d205c2
:1026080005d55a69c0b2541c5c61117016bd01220f
:102618002100180000f090fa002801d02078f5e792
:0626280001204042f2e730
:020000040000fa
:02262e00fee7c5
:020000040000fa
:10263000252e33662c252e33662c252e33662c252d
:102640002e33662c252e3066000000000d000000a1
:10265000252e33662c252e33662c252e33662c250d
:042660002e306600b2
:020000040000fa
:10266400f0b5050000200a4c4200165d002e02d190
:10267400a2185078f0bd296801300f78c0b2b74273
:1026840003d1a2180131507829600a28ecd9f1e766
:042694009429000085
:020000040000fa
:10269800f4464a1805d200f045f801d5c01740089d
:1026a800604701235b05d34206d200f03bf801d511
:1026b8000120c0074042604701d10042f5d0d01741
:0426c800400870470f
:020000040000fa
:1026cc0070b5140016000a004e430d00511e8a41cd
:1026dc005242144001003200180000f02bfa8642de
:0e26ec0003d02900fff7ecfa0400200070bdb7
:020000040000fa
:1026fa0070b4012676054c005d00e6420cd8ee4225
:10270a000ad825430543154303d0994204d1904280
:0e271a0002d1012070bc7047002070bc7047d7
:020000040000fa
:102728004a0010d2520d03231b02ff33d21a0ad4d7
:1027380052421f3209d4400dc90208430123db0766
:0e2748001843d040704700207047d0177047ec
:020000040000fa
:10275600002380290fdb812901dd83290bd1072185
:10276600136807338b431900083111601a685b68d8
:0a2776000260436001231800704761
:020000040000fa
:1027800010b5064bd86a064ada62db6a054b1b684d
:10279000002b02d0034a5168984710bd0020004228
:0827a0000ff80f00e00c00200f
:020000040000fa
:1027a80010b5084c2368196800f058f80123002870
:1027b80005db23680a20196800f0d4f9c30f5842d2
:0827c80010bdc046540d0020b5
:020000040000fa
:1027d000c20f12029d3201000cd001d5494202d431
:1027e000013a4900fcd5d205080a0906494100d33f
:0627f00001295041704771
:020000040000fa
:0227f60070472a
:020000040000fa
:1027f800054a002313609360044951600621116063
:10280800034a93601360704710e000e0ff5207002e
:04281800cc0c0020c4
:020000040000fa
:10281c0010b5064b1b68064b9a6801329a601b6810
:10282c00002b02d0024a5068984710bd10e000e01f
:04283c00cc0c0020a0
:020000040000fa
:1028400010b5064b987bc0b23b229a73044b1b68b1
:10285000002b02d0024a5168984710bd002c00425c
:04286000d80c002070
:020000040000fa
:1028640070b50e00050000f02bf9330004000200df
:1028740001212800fff728ff001b431e9841404216
:0228840070bd25
:020000040000fa
:02288600704799
:020000040000fa
:10288800054b064a5a801a00d37b5bb2002bfbdb50
:10289800014b188b80b27047002c00421880ffff54
:020000040000fa
:1028a800054b064a5a801a00d37b5bb2002bfbdb30
:1028b800014b588b80b27047002c00421880fffff4
:020000040000fa
:1028c8000fb407b5054b04aa1b6802ca1868019221
:1028d80000f08ef803b008bc04b01847540d00206f
:020000040000fa
:1028e8009d2201000ad002d4013a4900fcd5d20544
:0e28f800080a0906494100d3012950417047e2
:020000040000fa
:10290800054b9868db68984201d3c01a7047024aa1
:0c29180012698018c01af9e7500c00206a
:020000040000fa
:10292400054ad36a906a834201d8c01a7047024aa2
:0c293400126b8018c01af9e7500c00204c
:020000040000fa
:1029400070b50d001400012801d0200070bd2100d9
:0c2950002800fef7c5fd0028f9d0f6e7ce
:020000040000fa
:10295c00054a136802210b431360110002228b6895
:0c296c001a42fcd17047c0460020004217
:020000040000fa
:1029780042221201033a010007d002d4013a00189a
:0c298800fcd51205c30a400599187047e1
:020000040000fa
:1029940068076c094c836a9074a07ac000806888c8
:0c29a40000846c820081286e696c2900a0
:020000040000fa
:1029b000044b0622ff321a810d321a8183229204bf
:0829c0005a6070470004004258
:020000040000fa
:1029c800044a138802210b431380d37b5bb2002b8c
:0829d800fbdb7047003c0042ec
:020000040000fa
:1029e000044a138802218b431380d37b5bb2002bf4
:0829f000fbdb7047003c0042d4
:020000040000fa
:1029f80013b50400019201aafdf7e2fd6368db0646
:082a080001d50120404216bd7a
:020000040000fa
:102a100010b5034b1c69fff777ff013c201a10bd6e
:042a2000500c002036
:020000040000fa
:102a2400034b00229a601a6801210a431a60704716
:042a340010e000e0ce
:020000040000fa
:102a38008000034b9c46604440680002000a7047cf
:042a480040200042e8
:020000040000fa
:102a4c0010b500f089f8024b1860586010bdc046f4
:042a5c00e80c002062
:020000040000fa
:102a6000002310b59a4200d110bdcc5cc454013390
:022a7000f8e785
:020000040000fa
:102a720003000a7818001a7001310133002af8d1d4
:022a820070479b
:020000040000fa
:102a8400024a98238021c905d1507047004400416f
:020000040000fa
:102a9400024a1368013313607047c046fc0c0020df
:020000040000fa
:102aa400494e4600696e66004e414e006e616e00ee
:020000040000fa
:102ab40003001218934200d1704719700133f9e7eb
:020000040000fa
:102ac40003001a78002a01d1181a70470133f8e775
:020000040000fa
:102ad40010b5fff7b9fffff7d4fefff7d2fe10bd24
:020000040000fa
:102ae40010b5fef719fb029a039bfef715fa10bd09
:020000040000fa
:0e2af4000300413b192b01d8202318437047e3
:020000040000fa
:0c2b0400014b82225a60704700400041e3
:020000040000fa
:0c2b1000014b186059607047cc0c00208d
:020000040000fa
:0c2b1c00014b186059607047d80c002075
:020000040000fa
:0c2b2800014b186059607047e00c002061
:020000040000fa
:0c2b340010b50400fff79bff200010bd4f
:020000040000fa
:0a2b400010b50068fff7fcfe10bda1
:020000040000fa
:082b4c000048704700af2f00a4
:020000040000fa
:082b54000048704700f0fa028e
:020000040000fa
:082b5c0010b5fff727fa10bdc8
:020000040000fa
:082b640000487047380d002005
:020000040000fa
:082b6c0010b5fff743fd10bd99
:020000040000fa
:072b7400286e756c6c29004e
:020000040000fa
:042b7c00002070477e
:020000040000fa
:042b8000002070477a
:020000040000fa
:042b84007047c04690
:020000040000fa
:0200000400807a
:0440000077c700d8a6
:020000040000fa
:0200000400807a
:044004005c00ffff5e
:00000001FF
