:020000040000fa
:10000000f87f00201d11000033100000571500007c
:1000100000000000000000000000000000000000e0
:100020000000000000000000000000009b0b00002a
:1000300000000000000000009b0b000019140000ed
:100040009b0b00009b0b00009b0b00009b0b000018
:100050009b0b00009b0b00009b0b00009b0b000008
:100060009b0b00009b0b00009b0b00009b0b0000f8
:10007000fd0300009b0b00009b0b00009b0b00008e
:100080009b0b00009b0b0000d11300009b0b00009a
:100090009b0b00009b0b00009b0b00009b0b0000c8
:1000a0009b0b00009b0b00009b0b00009b0b0000b8
:020000040000fa
:1000b000f8b5c046f8bc08bc9e467047fd1000006d
:1000c000f8b5c046f8bc08bc9e467047d510000085
:020000040000fa
:0800d0007808000001000000a7
:020000040000fa
:1000d8000023f0b506001500afb00591019305990e
:1000e8000b78002b00d10fe101235b420a930eab82
:1000f80000240c93802309940b940d930b5d002b23
:1001080001d0252b2ad1002c06d02200300001f086
:1001180048f9059b1b190593059b1a78252a00d0d9
:10012800e7e0013302930593022310219c46082738
:10013800059803782b2b1bd025d8202b1bd0232bdd
:100148001dd02a2b2ad001f04df80b90059b1a7868
:10015800303a092a33d801330593f7e70134cde75c
:100168000122099b80180393134309930590dfe745
:100178000423099a0ee0099b03933b430be0099b78
:1001880003930b4307e02d2bead0302bd9d16246dd
:10019800099b0393134309930130e7e72b68013068
:1001a8001a1d1b6805902a600b93002b07da099a21
:1001b8005b420392012203990b934a400992099bdf
:1001c800da0702d5022293430993059b1a782e2a4f
:1001d8000ed10022581c0a9205905a782a2a28d152
:1001e800023305932b681a1d1b682a6003930a9330
:1001f80005a801f0a7f8059b0700187801f0f0f9a9
:10020800692800d183e035dc632800d1d6e01bdc07
:10021800252800d1dfe0612859d0252306aa1370cc
:10022800029b0593002309930b93013b0a93023326
:10023800b2e000f0d7ff0a90059b1a78303a092af5
:10024800d6d801330593f7e7642860d06728e4dc43
:100258002a00390006a801f08ff8002800d1a9e08b
:10026800059b09a95a1c05921b7806aa300001f0c3
:10027800d9f93de0702800d17de016dc6e2800d168
:1002880091e06f28c9d12b000022390006a800f0a0
:10029800c8fb002800d18de0059b06aa013309a9f7
:1002a8003000059300f0c6fd22e0752840d078287c
:1002b8004fd07328b1d1802f00d07be0059b2a68ee
:1002c80001330593131d2b601268002364e02a0094
:1002d800390006a801f050f8002800d16ae0059b13
:1002e80009a95a1c05921b7806aa300001f09af950
:1002f8002418019b1c19a34200dc74e04f223b4bdd
:100308001a6001235b42019301982fb0f0bd2b00c6
:100318000122390006a800f084fb00284ad0059b7a
:1003280006aa013309a93000059300f0d9fbdfe7dd
:100338002b000022390006a800f073fb002839d0f2
:10034800059b06aa013309a93000059300f042fe77
:10035800cee72b000022390006a800f062fb002837
:1003680028d0059b5a1c05921b7806aa09a93000bb
:1003780000f04ef9bce72b000022f02106a800f09f
:1003880050fb002816d0059b079a01330593069b5e
:10039800134306d1164a163209a9300000f046fe6a
:1003a800a6e77823e1e7019b39001a1906a82b0074
:1003b80000f0aefd059b013305939ae7802ff9d134
:1003c800059b013305932b681a1d1b682a6006aa32
:1003d80013700123e0e7802fecd1059b06aa0133b7
:1003e80005931070f5e7019479e6c046f401002002
:0403f8009414000059
:020000040000fa
:1003fc00f0b5de4657464e464546e0b583b07f4bda
:10040c009b7d002b00d1f1e07c4a137edbb2927d08
:10041c0052b2002a18db794a137edbb2927dd207e6
:10042c0000d4d6e0db0700d4d3e0754c754b98466e
:10043c00734b1b699946724b187d704a01239b467e
:10044c0007256b46991d30e05bb2002be3da6b4b52
:10045c005b8b07221340ded0694ad387674b80221f
:10046c001a76793a5a831b7e5b0705d5634b0421b8
:10047c001a8d1a7e0a42fbd1614b1b6a002bcad023
:10048c005f4a516a02209847c5e75f00bc46474661
:10049c006646be5d0e70c444664676784e70013377
:1004ac0016e00b78138500281ed1137e5e4633426e
:1004bc0000d18ee0a3689c46e3689c4500d185e0a2
:1004cc0057682f40012fe0d04e4fff5c0f70013367
:1004dc004b45bf413b404a4ffb6053682b40012bbf
:1004ec00dfd10b881385dee701f030f8444b1b6835
:1004fc00002b9dd0424a127f002a08d0404a9269b4
:10050c00904295d33e4a51680320984790e73c4a65
:10051c00926990428cd13a4a51680320984787e7f8
:10052c004246126a002a23d0696a01209047ab6abe
:10053c0001332a6b93429241134019e0304a926a7c
:10054c0031498c542e4a93623423d35c002b22d134
:10055c002a4b1b7e5b0749d5284b1c8da4b2b36a72
:10056c000133326b934292411340fa6a9a42d7d0cc
:10057c00234ad26a9a42ebd0204a516807220a4099
:10058c00012adbd11e4a916a49001f4a5454521861
:10059c00240a5470d6e700f069ff194b1b6a002b34
:1005ac00d6d017493c228a5c002a06d08a6b90422e
:1005bc00ced3496a00209847cae7114a926b904201
:1005cc00c6d10f4a516a00209847c1e70b4b012254
:1005dc001a750a4a137edbb2927d520706d55b0769
:1005ec0004d5074e3700b0463500b1e703b03cbc2c
:1005fc0090469946a246ab46f0bdc0460014004258
:0c060c00500100208000002000000020b1
:020000040000fa
:10061800f0b58fb00d934b680c9006938b680d0066
:100628000793cb6816000393069b0f68002b44dbe7
:1006380002239f4310233b400a93079b04930a9b82
:10064800002b07d0726833681343079a02d013004f
:10065800023b049308233b400b935a1e9341049a90
:10066800d31a04933368039a0893736809932b6920
:100678005c1e00231355069b0593012c20dc0a9b66
:10068800002b52d10b9b002b03d02023039a013c53
:1006980013552b6900975a1e039b121b19190c98a6
:1006a800079b00f052fb0c9b5b68db0503d56b686e
:1006b800984200da18000fb0f0bd01230693b9e79d
:1006c800089b099a13430cd1059b002b09dc069a59
:1006d800049b9b1a059a9b18002bd0dd02231f420e
:1006e800cdd00f22089b013c134018005730092b2e
:1006f80001dc303318000d9b413b192b06d8202311
:100708000343613b192b01d800f071ff039b185577
:10071800059b013b0593099b1a07089b1b091a4374
:10072800099b08921b090993a7e70cce1343a9d08c
:10073800039b0d9a1b19013b1a703023039a023c44
:0407480013559fe7bf
:020000040000fa
:10074c00f0b5de4657464e464546e0b585b0002925
:10075c0000d175e03b4b1f6900249c4699461e0056
:10076c009846029008e038485546855442469360b6
:10077c00631c0134994253d9344b5a6807231340f4
:10078c00012b19d0b268f568531cbb428041034061
:10079c009d4246d00298005d82462c4d6868072524
:1007ac000540012ddfd1520027485546855482461d
:1007bc00524400255570d9e763469b680193634604
:1007cc00da68019b0133bb42804103409a4228d036
:1007dc006200029d681c924602005046125c120296
:1007ec00285c024315000392184840688346072092
:1007fc008246584652461040012807d0124a28001b
:10080c00019d50554a469360631cb2e7019a55000e
:10081c000d4a0398505592465544020a6a70f1e706
:10082c001c0000f015fe002802d0084b01229a751e
:10083c00200005b03cbc90469946a246ab46f0bda4
:10084c000c00eee750010020800000200014004254
:020000040000fa
:10085c002d4b0e229a821a000223d1680b42fcd037
:10086c00294b00229a61da64284a9a6444220221b4
:10087c00995418004e31413a435c1340032bfbd181
:10088c00214a938c80218b4393841023d1680b4293
:10089c00fcd01f4b1b689b0e3f2b33d09b0280223e
:1008ac0092001343184a93621023d1680b42fcd078
:1008bc00154b02229a841a001023d1680b42fcd0eb
:1008cc00144b154a5a60154a9a601a0053785bb259
:1008dc00002bfbdb0f4b124a5a601a0053785bb2a9
:1008ec00002bfbdb0b4b0f4a5a800f4a5a800f4ae6
:1008fc005a800f4a5a800f4b0f4a1a62024b002241
:10090c001a627047203bc9e700080040f4050e004e
:10091c0024608000000c004001080100013200003e
:10092c0000070100054000000740000017400000d0
:0c093c001b4100000004004022080100e4
:020000040000fa
:10094800f0b5060085b00f0015001c008b4265d875
:1009580001d1824262d82100280000f0e1fd39006f
:100968000090300000f0dcfd009b21001b1a1a00eb
:100978002800039300f0c8fd00900191019bbb4241
:1009880046d802d1009bb34242d8009b019c039aef
:1009980001200021f61aa74100f0b6fd039b002ba9
:1009a8002fd0019b009adb0754081c43019b5d086c
:1009b800039b9c46bd422ed801d1b4422bd83200ad
:1009c8003b00121bab41012692185b410027b61869
:1009d8005f4101235b429c446346002bead18019a6
:1009e8007941039a04000d003000390000f080fdc1
:1009f800039a06000f0000f087fd241a8d4120009d
:100a080029000a9b002b01d01e605f6005b0f0bd75
:100a180000200021c2e7b6197f41dae70020002153
:020a2800efe7f6
:020000040000fa
:100a2a0010b588293cd015dc81294dd003dc8029fa
:100a3a004ad0002010bd822911d08429f9d1196821
:100a4a00002a26d00a1d1a6000228b5e0360db177b
:100a5a00436011e0a02930d010dc9029e9d119684f
:100a6a000724002a2ed00919a1430a0008321a6065
:100a7a000b684c68036044600120dbe7c02901d0a1
:100a8a00f029d6d11a68111d196013680360002372
:100a9a00dee70c1d1c600b689bb203604260ebe74b
:100aaa001968002a04d00a1d1a600023cb56cde724
:100aba000c1d1c600b68dbb2efe71a68111d196088
:100aca001368c3e70731cfe71968002a03d00a1d64
:0e0ada001a600b68bae70c1d1c600b68dde7a4
:020000040000fa
:100ae800f0b54b6889b005930b6807009c460793df
:100af800cb680c008e68049310685168cd0f44d001
:100b08000b000200002150429941059b002b08db95
:100b18000222634693430793002d02d1079b5a078d
:100b28002ad5731e07aa02920a22009301920b008b
:100b38000200200000f0caf8002d02d1079b5a07d6
:100b48001ed501382d23002d00d1023b049a1354e1
:100b580023695a1e049b121a1918079b3800009320
:100b6800330000f0f2f87b68db0503d56368984230
:100b780000da180009b0f0bd1b07db0ff31ad1e744
:100b88001b07e5d501382023e0e7059b002bbfdada
:020b9800c4e7b0
:020000040000fa
:020b9a00fee774
:020000040000fa
:100b9c00b00100201c00000000000000e00100205b
:100bac000400000000000000900100202000000064
:100bbc0000000000e4010020040000000000000020
:100bcc00d8010020080000000000000000000020f8
:100bdc008000000000000000800000208000000069
:100bec000000000050010020400000000000000048
:100bfc00cc0100200c00000000000000e8010020e7
:100c0c000400000000000000ec01002004000000c3
:100c1c000000000000010020500000000000000057
:100c2c00f00100200400000000000000f40100208e
:100c3c0004000000000000000000000000000000a4
:020000040000fa
:100c4c001d4b1e4a1a601e4a9a81c02292025a609b
:100c5c001a00d369002bfcd1174a136802210b43ed
:100c6c001360d369002bfcd1164b00221a629a62d6
:100c7c00da6234215a5408315a549a63da871a606a
:100c8c009a60da600021197519779a610a4b5a68d3
:100c9c0007231340012b09d00a4b80221a631a61d7
:100cac00054b80229a757c3a9a757047054b402209
:100cbc001a631a61f4e7c0460014004204011040a4
:080ccc002bf6ffff5001002090
:020000040000fa
:100cd400f0b5050085b019000c9b100001931a684b
:100ce4002b696c68013bef681d00002c00da0124bd
:100cf4000026fe540a9e0123361b02960226164045
:100d04000b9ad2170392002d04dc002b17d0280075
:100d140005b0f0bd02000a4307d1002c05dc029a9d
:100d24001219002af1dd002eefd00b9a039b00f07c
:100d34007bfa013d130030327a55013ce3e710237e
:0e0d4400019a12689a431300019a1360dfe7c8
:020000040000fa
:100d5200f0b51d00012389b014000e9a06001a4056
:100d62000391029201d1a5420ad8220003993000d0
:100d720000f01afba54203d82500280009b0f0bdf7
:100d82002f1b01973a00102f00d91022202104a80e
:100d920000f019fc019b0f2b0ed80f2204a93a4038
:100da200300000f001fb029b002be6d122000399e8
:100db200300000f0f9fae0e7102204a9300000f058
:0a0dc200f3fa019b103b0193e4e7f4
:020000040000fa
:100dcc000021f0b5174b184a934208d30027174a55
:100ddc0013685168002b05d1002903d1f0bd19709f
:100dec000133f1e7100095680c305c18002d16d01b
:100dfc000b25ed1a5219a3420ad10b000322134002
:100e0c005a1e934189085918890040180200dfe7df
:100e1c005d1cae5c1e702b00ede71f700133a3420e
:100e2c00fbd1f3e700000020000000209c0b000029
:020000040000fa
:100e3c00f0b50b680c008f68cd68496887b0060068
:100e4c000593002902db02218b43059305a9536806
:100e5c00126802910821009701912000fff734ffde
:100e6c00059bdb0602d5302301382b54059b1b0751
:100e7c0002d5202301382b54236929185a1e059baf
:100e8c00121a009330003b00fff75dff7368db051f
:0e0e9c0003d56368984200da180007b0f0bd75
:020000040000fa
:020eaa0070478f
:020000040000fa
:100eac0070b5002000f0faf90021134800f0aafbfd
:100ebc0000f056fb00f002fb104c114d23002a00f1
:100ecc0043ca43c31188198092789a700d4e0e2331
:100edc0033600e212000fff733fc0b4b1860290008
:100eec0010313268200000f025fb0100306020003a
:100efc00fff726fcfee7c046b91500009001002064
:0c0f0c003c140000e4010020e001002083
:020000040000fa
:100f180010b584291fd007dc812915d0822922d059
:100f2800802911d0002010bd90291cd008dc882908
:100f3800f8d119680c1d1c600b6803601a7010e06a
:100f4800a02901d0c029edd119680c1d1c600b68bf
:100f580003601a6005e019680c1d1c600b680360cb
:100f68001a800120dfe719680c1d1c600b680360fc
:080f78001a60d2175a60f4e779
:020000040000fa
:100f800000230e4a10b513600d4a13600d4a13601a
:100f90000d4a13600d4a13600d4a53621361013309
:100fa000936000f000fb00f0fefa0a4c0a4b9c42f2
:100fb00000d310bd08cc9847f8e7c046f0010020e8
:100fc0000c01002008010020000100200401002085
:0c0fd00010010020bc000000c000000068
:020000040000fa
:100fdc00f0b50b680c008f68cd68496887b00600c7
:100fec000593002902db02218b43059305a9536865
:100ffc00126802910a21009701912000fff764fe0c
:10100c00236929185a1e059b121a009330003b00c5
:10101c00fff799fe7368db0503d56368984200da25
:06102c00180007b0f0bd42
:020000040000fa
:02103200fee7d7
:020000040000fa
:10103400f0b50f0087b0039015001049072204a8eb
:101044001c0000f0a5fabb687e6802933f68002d7f
:1010540000d104ad002c03d1280000f0bbfa040039
:10106400002e02dbb44200d934000097029b220018
:1010740029000398fff76bfe07b0f0bd24160000ab
:020000040000fa
:1010840030b51500012289b0524201920432ff3278
:101094000292002800d16846002403900491a142e2
:1010a40000d04c1e0594002906da4f220120074b7c
:1010b40040421a6009b030bd0022079002700690c9
:1010c4001a00290001a800f009faf3e7f40100204e
:020000040000fa
:1010d40010b5064c2378002b07d1054b002b02d00a
:1010e400044800e000bf0123237010bdb0010020bc
:1010f4000000000000000000044b10b5002b03d0da
:101104000349044800e000bf10bdc04600000000d1
:08111400b401002000000000fe
:020000040000fa
:10111c0010b50a4b98470a4b984700f079fa094bdf
:10112c00ff229343084a9360084b9847084b984713
:10113c00084b9847fff7b4fefee7c046ab0e000025
:10114c00ab0e00000000000000ed00e0810f00007d
:08115c00ab0e0000ab0e000019
:020000040000fa
:1011640010b5104b802212021a614f2206219954a5
:1011740005390732995401329954002237201a5400
:10118400043022241c548020c0055e3418511034cd
:101194001851c0201954dd315a542e395a540f3184
:0811a4005a5410bd0044004143
:020000040000fa
:1011ac00bff35f8f62b60c4bc32189005a58ff20e6
:1011bc0082433f3802435a50802252011a60c420a5
:1011cc0080001a5805491140c02212040a431a50d3
:1011dc008022d2021a60704700e100e0ffff00ff9e
:020000040000fa
:1011ec00030010b51a78202a0dd0110009390429f2
:1011fc0009d900212b2a02d02d2a01d1013101332a
:10120c0000200a2404e00133ece760430133801a28
:10121c001a78303a092af8d9002900d1404210bd79
:020000040000fa
:10122c00002b11d1002a0fd1002900d1002802d0a7
:10123c000021c943081c07b4024802a140180290bf
:10124c0003bdc046e103000003b4684601b5029833
:10125c00fff774fb019b9e4602b00cbc7047c04666
:10126c001c2101231b04984201d3000c10391b0aca
:10127c00984201d3000a08391b09984201d300098e
:10128c00043902a2105c40187047c04604030202e5
:0c129c0001010101000000000000000042
:020000040000fa
:1012a80010b50c4b06225a60fff758fffff7d2fa29
:1012b800fff7c8fc00f074f900f0a0f900f0f4f8aa
:1012c80000f094f800f008f800f022f8fff76aff41
:0812d80010bdc04600400041ba
:020000040000fa
:1012e0000c4a137801210b43137053785bb2002b27
:1012f000fbdb084b00229a61da6101325a601a78ee
:1013000002210a431a701a0053785bb2002bfbdbf0
:081310007047c04600180040c0
:020000040000fa
:101318000a4b01221a801a00d37b5bb2002bfbdb3d
:10132800064b00221a80302199710b3959811631e8
:1013380099732b395973024b1a607047002c00427d
:04134800d8010020a8
:020000040000fa
:10134c00f0b5050000200a4c4200165d002e02d1bb
:10135c00a2185078f0bd296801300f78c0b2b7429e
:10136c0003d1a2180131507829600a28ecd9f1e791
:04137c0094140000c5
:020000040000fa
:10138000002380290fdb812901dd83290bd107216f
:10139000136807338b431900083111601a685b68c2
:0a13a000026043600123180070474b
:020000040000fa
:1013aa0070b505690400954200d915002a006069e4
:1013ba0000f0ebf8226963695b19551b002225616d
:0613ca0063611a7070bda2
:020000040000fa
:1013d00010b5064b987bc0b23b229a73044b1b6836
:1013e000002b02d0024a5168984710bd002c0042e1
:0413f000d801002000
:020000040000fa
:1013f400054a00231360936004495160062111607b
:10140400034a93601360704710e000e0ff52070046
:04141400cc010020e7
:020000040000fa
:1014180010b5064b1b68064b9a6801329a601b6828
:10142800002b02d0024a5068984710bd10e000e037
:04143800cc010020c3
:020000040000fa
:10143c0048656c6c6f20576f726c64210d0a00004c
:10144c004c656e6774683a20256c640d0a00c046c2
:020000040000fa
:10145c00054b9868db68984201d3c01a7047024a62
:0c146c0012698018c01af9e75001002036
:020000040000fa
:10147800054ad36a906a834201d8c01a7047024a63
:0c148800126b8018c01af9e75001002018
:020000040000fa
:1014940068076c094c836a9074a07ac000806888dd
:0c14a40000846c820081286e696c2900b5
:020000040000fa
:1014b000034b892252001a81024a5a607047c04683
:0814c0000004004200000c0ec4
:020000040000fa
:1014c800044a138802210b431380d37b5bb2002ba1
:0814d800fbdb7047002c004211
:020000040000fa
:1014e00013b50400019201aafef7f6fd6368db065e
:0814f00001d50120404216bda8
:020000040000fa
:1014f800d0400b1cd1409c46203ad340184352425e
:1015080063469340184370479140031c90409c46a3
:10151800203a9340194352426346d34019437047d7
:1015280010b5002903d1fff79dfe203002e0081c0a
:08153800fff798fe10bdc0464c
:020000040000fa
:101540000eb403b503aa02ca019200f019f802b062
:0615500008bc03b01847bf
:020000040000fa
:02155600fee7ae
:020000040000fa
:1015580010b5034b1c69fff77dff013c201a10bd35
:04156800500100200e
:020000040000fa
:10156c00034b00229a601a6801210a431a607047e3
:04157c0010e000e09b
:020000040000fa
:1015800010b513000a000249fff77cfd10bdc046ec
:04159000ffffff7fdb
:020000040000fa
:10159400002310b59a4200d110bdcc5cc454013371
:0215a400f8e766
:020000040000fa
:0215a60070478c
:020000040000fa
:1015a800024a98238021c905d15070470044004160
:020000040000fa
:1015b800024a1368013313607047c046e8010020ef
:020000040000fa
:1015c80003001218934200d1704719700133f9e7ec
:020000040000fa
:1015d80003001a78002a01d1181a70470133f8e776
:020000040000fa
:0e15e8000300413b192b01d820231843704704
:020000040000fa
:0e15f6000300613b192b01d85f23184070479a
:020000040000fa
:0c160400014b82225a60704700400041f8
:020000040000fa
:0c161000014b186059607047cc010020ad
:020000040000fa
:08161c0010b5fff7d5fb10bd6e
:020000040000fa
:07162400286e756c6c2900b3
:020000040000fa
:04162c0000207047e3
:020000040000fa
:041630007047c046f9
:020000040000fa
:0200000400807a
:0440000077c700d8a6
:020000040000fa
:0200000400807a
:044004005c00ffff5e
:00000001FF
