:020000040000fa
:10000000f07f0020f51e000097190000cb1d0000b6
:1000100000000000000000000000000000000000e0
:100020000000000000000000000000004f0e000073
:1000300000000000000000004f0e00004d260000f0
:100040004f0e00004f0e00004f0e00004f0e00003c
:10005000ad1e00004f0e00004f0e00004f0e0000be
:100060004f0e00004f0e00004f0e00004f0e00001c
:100070004f0e00004f0e00004f0e00004f0e00000c
:100080004f0e00004f0e0000712600004f0e0000c2
:100090004f0e00004f0e00004f0e00004f0e0000ec
:1000a0004f0e00004f0e00004f0e00004f0e0000dc
:020000040000fa
:1000b000f8b5c046f8bc08bc9e4670478d1e0000cf
:1000c000f8b5c046f8bc08bc9e467047651e0000e7
:020000040000fa
:1000d000f0b59bb013930b6815900d934b6812917c
:1000e00004938b680e930b691893cb68069313687f
:1000f0000b9353680b98089300220023089902f091
:100100004af800280dd10d9b5b073ad408200d9bbf
:1001100003400c930e9b07930c9b002b0fd02023c6
:1001200006e0802212069446089b634408932d2320
:10013000069a13700e9b013b079301230c93089bb7
:100140000b995b005b08984a00291ed193421cd191
:10015000069c139ba4460c9a413b624493491000b1
:10016000192b10d802f018fc069802f0e3fb0d9b47
:100170000200009306990e9b159801f0cffb1bb06f
:10018000f0bd2b23d4e70431ece7934203d810d120
:100190000b9b002b0dd0069c139ba4460c9a413b55
:1001a000624482491000192b01d80831dae70c317a
:1001b000d8e7002200230b98089902f065f9002681
:1001c0007b4f002833d000230393139802f0cafb1f
:1001d000c3b20f93049b002b00dae8e10f9b0a9354
:1001e000672b00d0f1e0049b002b00d1dae1039be8
:1001f000043304db039b049a934200dae0e06523b6
:10020000f9e026002f00039b013303930022694b82
:100210003000390000f072fd0b9a089b04000d00bd
:1002200001f09aff0028ecd00024012524e003907f
:10023000ece7039b1a00604b9a4212da002c10d1b3
:1002400000225e4b0b98089900f058fd00220b909d
:10025000089130003900594b00f050fd2c00060089
:100260000f00544b30003900002201f03df8060029
:100270000f00039b013b039332003b000b9808994e
:1002800001f089ff0028d4d19fe7002300241093b8
:100290001194fee0089609970a9b039d652b00d0f8
:1002a00019e1002517e1002f0ad1002d08da2e23cd
:1002b000069a149901365354079b0137013b079363
:1002c000a21933009446302102e0069ad15401333a
:1002d0009c45fad1079aa319141b069a30305e1c6c
:1002e000d054631e0793002421e0129b14961b69cf
:1002f0000493053bb34200d8f7e0089a099b0b989a
:10030000109900f0f1ff01f00bf90490059102f053
:1003100043f8092800dd092010230d9a13400343f8
:10032000c1d10f9b672bbed1002dc9da01348020cb
:100330000006844610990b9a61440b0004980599b5
:1003400000920193089a099b02f004fb80231b068c
:10035000cb180b901093089809990022154b00f0c8
:10036000c3ff013d08900991bbe00d9bdb0600d463
:10037000bee02e23069a93550136b9e00398390062
:1003800001f072f9069b3031013c19550398390090
:1003900001f020f9079b0390013b0793bfe0069a09
:1003a000125c1a540138ede00000f07f14290000bf
:1003b0000000f03f00002440d4feffff0000504347
:1003c000039b002b16da66230a93049b01330493e4
:1003d0000a9b662b10d1039b002b03da0023002617
:1003e000764f03930f9b672b04d0039a049b94468c
:1003f0006344049366230a930023109611970b9d80
:10040000089c1493109a119b2800210000f06cffa7
:1004100001f086f81690179101f0beff80212a00a6
:100420000906631819900092019316981799109a6b
:10043000119b02f08ffa80231b06cc180022604b20
:1004400005001098119900f04fff149b1090119126
:1004500001331493149a049b9342d3d10022594b35
:1004600000f04cfc1090119102000b0028002100bc
:1004700001f091fe002800d007e7109a119b280098
:10048000210002f001f8002803d0199bdb0700d4fb
:10049000fbe6109a119b0b98089900f02ffb0022a5
:1004a0000b901091464b3000390000f027fc0b9a5e
:1004b000109b0890099101f0cdfd002800d1e9e6dc
:1004c000039b013303930a9b662b00d0e4e6049b55
:1004d000039d0133049300242700049b0c9eeb1a18
:1004e0001693169b9d4200d0ffe6002f00d13ce7fb
:1004f0000025069b9b1904931d700a9b652b31d127
:10050000189b5c1e069b1d55039bab4202da5b42a7
:100510000393013503230a27189a9b1a0893039b18
:10052000002b00d02ae7089b1b19002b00dd25e7d4
:10053000621e2d23002d00d1023b0699023c8b54f4
:10054000139b413b192b01d845230a93069b19198c
:100550000a9b0b70079b023b0793a64202da0498a2
:1005600002f01afa03230d9a1340022b00d0fbe588
:10057000079b002b00dcf7e5069802f0dbf9069bf1
:10058000079a9b180c9a824200dc08e71300069a2f
:100590003021944663441800079a02f0c3f90023ff
:1005a0000e93e1e50123049321e60623fbe70f9b6d
:1005b000672bfad00a930623049306e70000f03f66
:0805c00000002440000014407b
:020000040000fa
:1005c8000023f0b506001500afb005910193059919
:1005d8000b78002b00d10fe101235b420a930eab8d
:1005e80000240c93802309940b940d930b5d002b2e
:1005f80001d0252b2ad1002c06d02200300001f092
:100608005bfe059b1b190593059b1a78252a00d0cc
:10061800e7e0013302930593022310219c46082743
:10062800059803782b2b1bd025d8202b1bd0232be8
:100638001dd02a2b2ad001f04bfd0b90059b1a7870
:10064800303a092a33d801330593f7e70134cde767
:100658000122099b80180393134309930590dfe750
:100668000423099a0ee0099b03933b430be0099b83
:1006780003930b4307e02d2bead0302bd9d16246e8
:10068800099b0393134309930130e7e72b68013073
:100698001a1d1b6805902a600b93002b07da099a2c
:1006a8005b420392012203990b934a400992099bea
:1006b800da0702d5022293430993059b1a782e2a5a
:1006c8000ed10022581c0a9205905a782a2a28d15d
:1006d800023305932b681a1d1b682a6003930a933b
:1006e80005a801f03bfe059b0700187802f036f9d3
:1006f800692800d183e035dc632800d1d6e01bdc13
:10070800252800d1dfe0612859d0252306aa1370d7
:10071800029b0593002309930b93013b0a93023331
:10072800b2e001f0d5fc0a90059b1a78303a092a04
:10073800d6d801330593f7e7642860d06728e4dc4e
:100748002a00390006a801f0dffe002800d1a9e040
:10075800059b09a95a1c05921b7806aa3000fff7c9
:10076800b3fc3de0702800d17de016dc6e2800d196
:1007780091e06f28c9d12b000022390006a800f0ab
:1007880011fe002800d18de0059b06aa013309a9b6
:100798003000059302f01ff922e0752840d0782830
:1007a8004fd07328b1d1802f00d07be0059b2a68f9
:1007b80001330593131d2b601268002364e02a009f
:1007c800390006a801f0a0fe002800d16ae0059bc8
:1007d80009a95a1c05921b7806aa300002f0fdf8f8
:1007e8002418019b1c19a34200dc74e04f223b4be8
:1007f8001a6001235b42019301982fb0f0bd2b00d2
:100808000122390006a800f0cdfd00284ad0059b3a
:1008180006aa013309a93000059302f0dcf8dfe7e6
:100828002b000022390006a800f0bcfd002839d0b2
:10083800059b06aa013309a93000059302f0cbf8fd
:10084800cee72b000022390006a800f0abfd0028f7
:1008580028d0059b5a1c05921b7806aa09a93000c6
:1008680002f0bbf8bce72b000022f02106a800f03c
:1008780099fd002816d0059b079a01330593069b1e
:10088800134306d1164a163209a9300001f0faf9c5
:10089800a6e77823e1e7019b39001a1906a82b007f
:1008a80001f0aef8059b013305939ae7802ff9d143
:1008b800059b013305932b681a1d1b682a6006aa3d
:1008c80013700123e0e7802fecd1059b06aa0133c2
:1008d80005931070f5e7019479e6c0467409002085
:0408e8009227000053
:020000040000fa
:1008ec00280900201c00000000000000180800204f
:1008fc00c000000000000000440900200c000000b3
:10090c00000000005009002008000000000000005a
:10091c007e0900200100000000000000600900209a
:10092c0004000000000000007c0900200200000010
:10093c00000000006409002004000000000000001a
:10094c0018060020000200000000000068090020ca
:10095c0004000000000000007f09002001000000de
:10096c00000000006c0a00200200000001000000e2
:10097c00ffff00006c0900200400000000000000d4
:10098c00d808002050000000000000008009002062
:10099c006c000000010000008c0900208809002078
:1009ac008c09002000000000250000000800002039
:1009bc000004000000000000000000000000000027
:1009cc00000000000000000000000000000000001b
:1009dc0000000000e72900000000000000000000fb
:1009ec000000000000000000711a00000000000070
:1009fc0000000000000000000000000000000000eb
:100a0c0000000000000000200804000000000000ae
:100a1c004c0a002020000000010000000100000032
:100a2c0003000000000000000000000000000000b7
:100a3c0000000000000000005809002058090020a8
:100a4c0008000000000000007009002004000000f5
:100a5c0000000000740900200400000000000000e9
:100a6c00080400201002000000000000ec09002027
:100a7c006000000001000000010000000300000005
:100a8c00000000000000000000000000000000005a
:100a9c00000000008d1b00000000000000000000a2
:100aac0000000000a5290000f32800000000000051
:100abc00000000000000000000000000000000002a
:100acc00000000000000000000000000000000001a
:100adc000000000000000000780900200400000065
:100aec0000000000000000000000000044444444ea
:020000040000fa
:100afc00f0b40125ed070f005f405ad48b4200d1b2
:100b0c00824205d950404240504059404b405940d8
:100b1c004e18760ddf187f0d3bd0741c640529d060
:100b2c00f41b352c26d80e0ddb022b43db0ac90235
:100b3c002943c9121700202c1ed2e741e24057402e
:100b4c00e3415a40a340e3405a40002480185941e5
:100b5c000ad3b21c520521d0c207012f62411700e3
:100b6c004008cb0718434908013636054208af4107
:100b7c0060417141f0bc7047203c06d01f00e7413a
:100b8c00e3405f400024012a6741c0186141ebd368
:100b9c00dfe7002eeed129400020ebe701363105ce
:100bac000020e7e7e742e5d10020c143090dc90465
:100bbc00e0e76b400e00871a9e4104d26e40c01bca
:100bcc00b141d21973414e18df18ac0ae642e9d292
:100bdc00760d7f0d31d0f41b362ccbd8b4460e0dd0
:100bec00db022b43db0ac9022943c90a012c32d888
:100bfc0004d1d4075208df073a435b08ef0a64427a
:100c0c00904199411ed0002239424dd124194041c6
:100c1c0049410124394204d1013400184941394277
:100c2c00fad06246a24204d9361b013e3605891918
:100c3c00a0e7f10ac90700209ce736429ad10020b0
:100c4c00002197e70200224394d0b842ded2010083
:100c5c0020002024e3d1202c13dd203ce24117009e
:100c6c00a240e2405740e3415a40a340e3405a407f
:100c7c00012fbf410137174300227c42984191411b
:100c8c000ce01700e741e2405740e3415a40a340d3
:100c9c00e3405a407c429041994100220f0303d219
:100cac00013e241940414941013e36054708ac41fb
:080cbc0050417141f0bc70478a
:020000040000fa
:100cc40008d1002806d1f54204d801d3002a01d165
:100cd4006d0d09d10020c143090dc904f0bdf9d13e
:100ce4001242f7d1640df5d00020c14349054908eb
:100cf400a6e000206146f0bdf0b50127ff070e0015
:100d04005e403e40b446be0a4c18dd18f442d7d2c9
:100d1400f542e4d2640decd06d0dead06419c90239
:100d24003943460dc0023143db023b43db0a10b4b6
:100d34008e4685b297b26f43140c6c433e0ca419d3
:100d4400260c2404bfb227439cb26c43a419190c8b
:100d54006943250ca4b249190d04090c6419000c4b
:100d640095b245433e0c76193743bfb2360c150c89
:100d74004543ad19a6b2240cad192e0437432e0ced
:100d840036199db24543ad19acb22e0c89191d0c10
:100d940045436d182e04290c3443704680b295b235
:100da40045433e0c76193743bfb2360c150c454308
:100db400ad19a6b2ad19240c2e0437432e0c3619e6
:100dc4009db24543ad19acb22e0c89191d0c454397
:100dd4006d182e043443290c75462d0c90b26843cb
:100de4003e0c80190604bfb23e43070ca0b23f1864
:100df400120c6a43d019020c80b2240ca4189ab2c3
:100e04006a43121914042043120c89181b0c6b43f7
:100e1400c91810bc01273d05294203d1b619404128
:100e24004941013cff077d0d013d641b0bdb6d0057
:100e3400ac4209da240500254208be4168416141fb
:0a0e440066463143f0bd54e74ee767
:020000040000fa
:020e4e00fee7bd
:020000040000fa
:100e5000f0b587b0039003a801f05ef9002802da2c
:100e6000002007b0f0bd039b1b095d1e202d09d992
:100e70004f49023b4f4a8b4224d8db08d318043b2e
:100e80001d7801352a000120002101f0cdfc00244d
:100e900043428c4100930194474f00983a687b6825
:100ea0001040020001990b401a433fd1039b05a853
:100eb0001033059301f0c4fc002809d10c223f4bec
:100ec0001a60cee7db09d318043b1d781135d9e74a
:100ed0003b490c68a04206d0059b0400103b0593db
:100ee0000123103483600125059be2180a602b431f
:100ef000083a083c28c26360002cb1d0200001f001
:100f000065fa00280bd023686168ab43e31a5a687e
:100f1000aa4352185a606168a94362501c0020001d
:100f2000039901f06efb200008309ae7214a254919
:100f30003c32002831d1584203404b43db0ed65c93
:100f40002036300001f0f8fb731cdb00fc58083b36
:100f5000fb189c42a0d0272e25dd0235ae4201dcd5
:100f60003f2e20d101226368039f9343dd1b28009d
:100f7000009301f04df9864215d1e268a168e319aa
:100f8000da60996093609a68d360012217431f600a
:100f90005d60009be5506760c1e7434203404b43ff
:100fa000db0ed65ccde73100200000f0bffeb6e7d7
:100fb000ff010000301b0000100400207409002015
:080fc0000804002029e66b077c
:020000040000fa
:100fc800f0b58bb0c30604d4464bff229a730bb01e
:100fd800f0bd454e347801f07bfb444d640060530e
:100fe80001f086fb347863005b5b414a12889a42c1
:100ff80001d93f4a13803f4a12889a4201d23d4a9a
:101008001380651cedb2384b1d703b4b1b78002bd1
:10101800ddd0002d63d0354a0020002100e0190002
:101028001388c0184b1cdbb20232a142f7d101f081
:101038008ffb041c280001f0cdfa011c201c00f0d5
:1010480019fb041c01f0b0fc01f082fb211c00f02c
:1010580011fb071c264d288801f07afb059001f04a
:10106800a3fc0690234c208801f072fb079001f046
:101078009bfc0600381c00f0c7ff089009911f4f21
:10108800300001f065fb011c079800f0f3fa1c49d9
:1010980000f0e7f900f0b8ff02900391069801f01c
:1010a80057fb011c059800f0e5fa154900f0d9f93d
:1010b80000f0aaff00900191089a099b380001f0fe
:1010c80027fb3800103001f049fa0023064a137054
:1010d800094a1370012252422a80238077e70020b0
:1010e800a5e7c046002c00427e0900201806002013
:1010f8006c0a00207c0900207f090020802800005d
:0411080000007a4425
:020000040000fa
:10110c00334b0e229a821a000223d1680b42fcd078
:10111c002f4b00229a61da642e4a9a6444220221ef
:10112c00995418004e31413a435c1340032bfbd1c8
:10113c00274a938c80218b4393841023d1680b42d4
:10114c00fcd0254b1b689b0e3f2b3fd09b02802273
:10115c00920013431e4a93621023d1680b42fcd0b9
:10116c001b4b02229a841a001023d1680b42fcd02c
:10117c001a4b1b4a5a601b4a9a601a0053785bb28e
:10118c00002bfbdb154b184a5a601a0053785bb2e4
:10119c00002bfbdb114b154a5a60154a9a601a005a
:1011ac0053785bb2002bfbdb0c4b124a5a80124a71
:1011bc005a80124a5a80124a5a80124a5a80124b4a
:1011cc00124a1a62024b00221a627047203bbde79a
:1011dc0000080040f4050e0024608000000c004064
:1011ec0001080100011900000007010002070100bd
:1011fc00021f0000054000000740000017400000df
:10120c001b4100001d420000000400402288010028
:020000040000fa
:10121c00f7b5002858d00838436801221e009643c1
:10122c0085192a680400934200d0ffde01276b6801
:10123c00226813403b420ed1200001f0c1f8002877
:10124c0043d1280001f003f90028f0d06b68bb43b0
:10125c00f618ed18ebe73b003343636030002b606e
:10126c0000f0d0ff019001f061fa6b682268134026
:10127c003b42e1d0184b019a1868596801f0c2fa48
:10128c00384212d1019a0120002101f0c7fa0b005b
:10129c00002804d0104a126802430f480260002b49
:1012ac0003d00d4a53680b435360019b0a4a013328
:1012bc00db00d3181a005b68083a66602e60e360a6
:1012cc00a260d460e3689c60f7bd2368bb43e41a5a
:0c12dc006368bb43f618b4e71004002060
:020000040000fa
:1012e800f0b40125ed070c005c402c40a446ae0a82
:1012f8004c18df18f4423dd2f74245d2640d4cd069
:101308007f0d3cd0e41bc9022943cf0adb022b43e3
:10131800db0a0600b61a9f4104d2013cb6197f4188
:10132800b6185f416812800d241838dd0018844211
:1013380025d8e80c0021b6197f41b61a9f4103d37e
:1013480040414941f7d304e0b6185f4100184941cc
:10135800f1d32405b6197f41b61a9f4105d3374307
:10136800c20717430022012f5041614162461143d1
:10137800f0bc70470cd100280ad1f74208d20020ef
:10138800c143490d0905f1e7002a01d1f74206d00a
:101398000020c143090dc904eae77f0df8d00020f9
:0413a8006146e5e7ce
:020000040000fa
:1013ac0010b588293cd015dc81294dd003dc80296f
:1013bc004ad0002010bd822911d08429f9d1196896
:1013cc00002a26d00a1d1a6000228b5e0360db17f0
:1013dc00436011e0a02930d010dc9029e9d11968c4
:1013ec000724002a2ed00919a1430a0008321a60da
:1013fc000b684c68036044600120dbe7c02901d016
:10140c00f029d6d11a68111d1960136803600023e6
:10141c00dee70c1d1c600b689bb203604260ebe7bf
:10142c001968002a04d00a1d1a600023cb56cde798
:10143c000c1d1c600b68dbb2efe71a68111d1960fc
:10144c001368c3e70731cfe71968002a03d00a1dd8
:0e145c001a600b68bae70c1d1c600b68dde718
:020000040000fa
:10146a0030b405004d400124e407254042004b00fa
:10147a00120e32d01b0e3cd0ff2a33d0ff2b3fd0a6
:10148a00d21800022043000a09022143090ac4b201
:10149a004c43000ac3b24b43000a4843210a5b1873
:1014aa00190a091801d44900013a080a7f3a2adbc5
:1014ba00fe2a0fd2d2051c43240601d0012421435f
:1014ca00c9b280295041802901d1400840002843ef
:1014da0030bc7047ff20c005f9e71b0eff2b0ad06e
:1014ea002800f5e7400206d1ff2bf3d1490202d1c9
:1014fa00f0e7ff2af4d17f2000010c300005e7e76e
:10150a004902f8d1e6e743020132e9d15b1202331c
:06151a00e6d9d805e4e764
:020000040000fa
:101520004b005b0d264af0b55c1e944238d8254a24
:101530009e1825d4332e22dc234a9b1827d4234a15
:10154000da400700214b9743f3403c000f00024074
:101550009f4319403d000a430fd0002f0dda20238e
:101560005b42f11824d480204003c840020080214f
:101570004903f1400b00a4185d4120002900f0bd93
:101580000020002901db0021f9e71149f7e72022bb
:101590000e4b921b934001225242f2401a43d0e775
:1015a000002becd10022c90fcb0710001900e6e791
:1015b00020218020891b400388400200d7e7c046d5
:1015c000fd07000001fcffffe1fbffffffff0f0035
:0415d0000000f0bf68
:020000040000fa
:1015d400002941d010b4041c4c40a446012300222d
:1015e400002900d54942002800d5404288422cd326
:1015f40001242407a14204d2814202d209011b0121
:10160400f8e7e400a14204d2814202d249005b001f
:10161400f8e7884201d3401a1a434c08a04202d387
:10162400001b5c0822438c08a04202d3001b9c08c8
:101634002243cc08a04202d3001bdc08224300282a
:1016440003d01b0901d00909e3e7101c6446002cf0
:1016540000d5404210bc704701b5002001f0c4f928
:1016640002bdc0460029f7d003b5fff7b3ff0ebc97
:081674004243891a1847c046e1
:020000040000fa
:10167c0030b405004d400124e407254042004b00e6
:10168c00120e26d01b0e34d0ff2a2dd0ff2b35d0b6
:10169c00d21a000220430902214343084908a00d35
:1016ac005b1a02d2013a5b005b185b008b4200d3e1
:1016bc005b1a4041f9d37f3222ddff2a06d2d205d4
:1016cc00c91a8b425041284330bc7047ff20c005db
:1016dc00f9e71b0e03d0ff2b12d1490210d07f204b
:1016ec0000010c300005efe74002f8d1ff2bedd1e3
:1016fc00f5e7ff2aead14002f1d1e7e74902eed142
:04170c002800e1e7e9
:020000040000fa
:10171000002934d00123002210b488422cd30124a4
:101720002407a14204d2814202d209011b01f8e739
:10173000e400a14204d2814202d249005b00f8e7f2
:10174000884201d3401a1a434c08a04202d3001b1e
:101750005c0822438c08a04202d3001b9c08224351
:10176000cc08a04202d3001bdc082243002803d08f
:101770001b0901d00909e3e7101c10bc704701b533
:10178000002001f033f902bd0029f8d003b5fff7be
:0c179000c1ff0ebc4243891a1847c04636
:020000040000fa
:10179c00f0b51600050002278369426987b00293f1
:1017ac00d31a03939b1904910596019302ac3a004a
:1017bc002100286800f0f8fe019b984208d1ab6824
:1017cc00ea68ab619a18aa626b61300007b0f0bd91
:1017dc0000280cda102200236968ab620a43ab6163
:1017ec006b616a60022f12d06368f61aede7019bf9
:1017fc001b1a01936368984202d9c01a0834013f3e
:10180c0023681b1823606368181a6060cfe71e00fa
:02181c00dbe708
:020000040000fa
:02181e00704711
:020000040000fa
:101820001d4a137801210b43137053785bb2002bd0
:10183000fbdb194904238b610022ca61033b4b6027
:10184000cb60164b1a7210321a7520201a540c30c5
:101850001a540c301a540c301a540c301a540c30e0
:101860001a540c301a540c301a540c301a540c30d0
:101870001a540c301a540c301a540c301a540c30c0
:101880001a540b78022213430b700a0053785bb290
:10189000002bfbdb7047c0460018004018080020f2
:020000040000fa
:1018a000f8b5846a05000f001600002c0ad0ab6a58
:1018b0006a699b1ab3420cd2320039002800fff744
:1018c0006dff05e000f073ff03002000002beed059
:1018d000f8bd002ef0d02b0034331b785bb2002b08
:1018e0001adb3400dbb2621eb95c994212d12200cd
:1018f00039002800fff752ffa042e9d33f19341bfb
:1019000022003900686900f0e2ff6b6930001c19a1
:0c1910006c61dde7141ee6d13400f1e745
:020000040000fa
:10191c00f0b51d00012389b014000e9a06001a4080
:10192c000391029201d1a5420ad8220003993000fa
:10193c0000f0c0fca54203d82500280009b0f0bd7a
:10194c002f1b01973a00102f00d91022202104a838
:10195c0000f0e2ff019b0f2b0ed80f2204a93a4096
:10196c00300000f0a7fc029b002be6d1220003996b
:10197c00300000f09ffce0e7102204a9300000f0da
:0a198c0099fc019b103b0193e4e776
:020000040000fa
:02199600fee76a
:020000040000fa
:101998000021f0b5174b184a934208d30027174a7d
:1019a80013685168002b05d1002903d1f0bd1970c7
:1019b8000133f1e7100095680c305c18002d16d043
:1019c8000b25ed1a5219a3420ad10b00032213402a
:1019d8005a1e934189085918890040180200dfe708
:1019e8005d1cae5c1e702b00ede71f700133a34237
:1019f800fbd1f3e70000002000000020ec08000005
:020000040000fa
:101a080010b584291fd007dc812915d0822922d05e
:101a1800802911d0002010bd90291cd008dc88290d
:101a2800f8d119680c1d1c600b6803601a7010e06f
:101a3800a02901d0c029edd119680c1d1c600b68c4
:101a480003601a6005e019680c1d1c600b680360d0
:101a58001a800120dfe719680c1d1c600b68036001
:081a68001a60d2175a60f4e77e
:020000040000fa
:101a70007fb51600c2680d0013000091591e8b41fe
:101a8000f31a0193836804000392694602220068f6
:101a9000029300f07bfd002808dc18220823024096
:101aa0005340626813436360060010e0019b834269
:101ab000fad2a268c01ae3681018e2632064002b0f
:101ac00005d0531ce3631378ad19013d2b70300032
:041ad00004b070bd31
:020000040000fa
:101ad40000230e4a10b513600d4a13600d4a1360bb
:101ae4000d4a13600d4a13600d4a536213610133aa
:101af400936000f025ff00f018fc0a4c0a4b9c424e
:101b040000d310bd08cc9847f8e7c0467009002000
:101b1400e4080020e0080020d8080020dc080020a9
:0c1b2400e8080020bc000000c000000029
:020000040000fa
:101b30002021222324242525262627272828282853
:101b4000292929292a2a2a2a2b2b2b2b2c2c2c2ced
:101b50002c2c2c2c2d2d2d2d2d2d2d2d2e2e2e2eb5
:101b60002e2e2e2e2f2f2f2f2f2f2f2f000117022b
:101b70001d1813031e1b190b1408040d1f161c122d
:0c1b80001a0a070c1511090610050f0ebb
:020000040000fa
:101b8c0070b504000d00002801d1002070bd436821
:101b9c009b0607d543698269934215d80023a3623b
:101bac00a3616361e16b236c994204d2c91a0122cf
:101bbc00206800f017ff00232364e3639d42e4d008
:101bcc00206800f003ffe1e70022c36a1100984788
:0c1bdc006369002be2d101204042d7e7f2
:020000040000fa
:101be800f8b505000c000020002d20d000f076fc90
:101bf800002c17d000200e4a0421072605e0178d77
:101c08004300ef52013084420dd0137e0b42fcd0ca
:101c1800538b334207d153683340012befd0138dd8
:101c28002b54efe72000201a44426041c0b2f8bdaf
:041c38000014004252
:020000040000fa
:101c3c0010b5124b802212021a614f2206219954c0
:101c4c004e3a50315a5401315a540021372019540c
:101c5c00043022241c548020c0055e3418511034ea
:101c6c001851c0201a5401301a54dd3299542e3aae
:101c7c00813898540f32995410bdc046004400412d
:020000040000fa
:101c8c00f0b50f0087b0039015001049072204a887
:101c9c001c0000f016febb687e6802933f68002da6
:101cac0000d104ad002c03d1280000f03dfe04004f
:101cbc00002e02dbb44200d934000097029b2200b4
:101ccc0029000398fff724fe07b0f0bdd0290000cf
:020000040000fa
:101cdc0070b5040016001d00022a1cd043689b0638
:101cec0019d4002908d1002d01d18025ed00280040
:101cfc000830fff7a7f8010020236268a1601343a6
:101d0c0063602300e5603433ff22012e00d10a22e8
:101d1c001a70024be362002070bdc046a11800008f
:020000040000fa
:101d2c0070b5c668856804000a00ae4211d1012066
:101d3c00002100f073fdc043c943431c03d00b4b7f
:101d4c001a68104018604b1c03d0084a536819409d
:101d5c005160012319006268b56011439a43ee602b
:101d6c006160a41822681343236070bd1004002026
:020000040000fa
:101d7c0037b56b46dd1d836a04002970002b0cd02f
:101d8c006369a26a93420fd3e36a012229002000ff
:101d9c009847012805d1287805e000f002fd0028bd
:101dac00eed0012040423ebd220034321278287819
:0e1dbc0052b29042e8d05a1c62611870f3e7f0
:020000040000fa
:021dca00fee732
:020000040000fa
:101dcc0010b5104b06225a600f4b1b681868002187
:101ddc0000f06efdfff72cfffff792f900f04efac2
:101dec0000f0f2f900f080fd00f0befd00f02efdd9
:101dfc0000f014fcfff70efd00f094fa00f046f929
:0c1e0c0010bdc0460040004184090020c9
:020000040000fa
:101e18004d6f746f722050756c7365204d656173da
:101e28007572656d656e740d00000000467265710f
:101e38002028487a292c204d696e20506572696fd8
:101e48006420286d73292c204d61782050657269b3
:0c1e58006f6420286d73290d0a0d000036
:020000040000fa
:101e640010b5064c2378002b07d1054b002b02d06c
:101e7400044800e000bf0123237010bd280900209e
:101e84000000000000000000044b10b5002b03d03c
:101e94000349044800e000bf10bdc0460000000034
:081ea4002c09002000000000e1
:020000040000fa
:101eac00f0b5c64600b50e4d00240e4f01239846e2
:101ebc0004e03e6101340c35102c0ed02a7ae3b2ca
:101ecc009a42f7d13b694646a6401e42f2d02b6897
:101edc00002beed068689847ebe704bc9046f0bd49
:081eec00180800200018004056
:020000040000fa
:101ef40010b50a4b98470a4b984700f05bfd094b15
:101f0400ff229343084a9360084b9847084b98472d
:101f1400084b984700f010f8fee7c0461f18000071
:101f24001f1800000000000000ed00e0d51a0000ba
:081f34001f1800001f18000037
:020000040000fa
:101f3c0010b50020fff744ff00210c4800f01afdfb
:101f4c0000210b4800f01cfd00f08afc00f036fc70
:101f5c0000f040fc074c200000f0fefa20001c3082
:101f6c0000f0fafa00f008f8fce7c046052900007a
:081f7c00c90f0000181e00004f
:020000040000fa
:101f84000c4b1b680c4a12689a1a132a06d90a4a7f
:101f940013600a499c228020c0058850084a1268b0
:101fa4009a1a132a04d9074a01211170044a1360aa
:101fb4007047c046640900206009002000440041c5
:081fc400680900207f090020dc
:020000040000fa
:101fcc0070b5002818d0002918d000250c4a01241f
:101fdc00072605e06b00c35a13850135a94209d0c9
:101fec00137e2342fcd053683340012bf2d0435d67
:101ffc001385f2e7012070bd0020fce70120fae711
:04200c00001400427a
:020000040000fa
:1020100041008c46012212068a420bd80909382356
:102020001b06c918c30fdb07194340076346da4292
:1020300004d27047c10fc9070020704703d138236d
:102040001b06c918704738231b06c9180122d20481
:042050001143704781
:020000040000fa
:1020540030b401256d054c00e54215d85c00e5421d
:1020640012d80c001c436400044314430fd005d25f
:1020740082428b418041013030bc7047904299418b
:102084008041013030bc7047002030bc70470120d3
:0420940030bc7047a5
:020000040000fa
:10209800bff35f8f62b60c4bc12189005a58ff20ed
:1020a80082433f3802435a5010221a60c4208000ed
:1020b8001a5806491140c02212040a431a508022b5
:1020c800d2021a607047c04600e100e0ffff00ff3f
:020000040000fa
:1020d800030010b51a78202a0dd0110009390429f7
:1020e80009d900212b2a02d02d2a01d1013101332f
:1020f80000200a2404e00133ece760430133801a2e
:102108001a78303a092af8d9002900d1404210bd7e
:020000040000fa
:102118000c4a036810b5546a0b4a591e121b9142a7
:102128000bd9002b05d00c220120084b40421a6025
:1021380010bd102202600020fae70f2217339343e4
:102148000360f8e7e8080020efffff7f740900202c
:020000040000fa
:1021580030b401256d054c00e54215d85c00e54218
:1021680012d80c001c436400044314430cd005d25d
:1021780082428b418041404230bc70479042994135
:0e2188008041404230bc7047002030bc7047a0
:020000040000fa
:1021960030b401256d054c00e54215d85c00e542da
:1021a60012d80c001c436400044314430cd005d21f
:1021b600904299418041404230bc704782428b41f7
:0e21c6008041404230bc7047002030bc704762
:020000040000fa
:1021d4000b4b01221a801a00d37b5bb2002bfbdb72
:1021e400074b60221a80074a1a83074a5a833b2204
:1021f4009a731a00d37b5bb2002bfbdb7047c0469b
:0c220400003c0042c8640000c409000057
:020000040000fa
:102210000309013b1800202b07d90a4a934205d82d
:102220000948db08c318043b18787047e0223f20b8
:1022300052019342f9d80448db09c318043b1878cb
:0c2240001030f2e7ff010000301b00002e
:020000040000fa
:10224c000b00496810b50200890603d4190000f090
:10225c004df810bd190034310978c0b249b2814231
:10226c0007d059699c6aa14203d24c1c5c610a706c
:0c227c00efe711001800fff77bfdeae718
:020000040000fa
:102288000a4b0b4a1a600b4a9a81c02292025a6082
:102298001a00d369002bfcd1044a136802210b43ae
:1022a8001360d369002bfcd17047c046001400426c
:0822b800040110402bf6ffffaa
:020000040000fa
:1022c000436870b50400d80510d52569954200d93a
:1022d00015002a00606900f0fafa226963695b1947
:1022e000551b0022636125611a7070bddb06fcd4aa
:0822f000200000f0d9faf8e724
:020000040000fa
:1022f80013b50b006a46d41d5a68c1b22170d205c5
:1023080005d55a69c0b2541c5c61117016bd012212
:102318002100180000f0c4fa002801d02078f5e761
:0623280001204042f2e733
:020000040000fa
:02232e007047f6
:020000040000fa
:102330000a4b01221a801a00d37b5bb2002bfbdb15
:10234000064b00221a80302199710b3959811631c0
:1023500099732b395973024b1a607047002c004255
:042360005009002000
:020000040000fa
:10236400f0b5050000200a4c4200165d002e02d193
:10237400a2185078f0bd296801300f78c0b2b74276
:1023840003d1a2180131507829600a28ecd9f1e769
:04239400922700008c
:020000040000fa
:10239800f4464a1805d200f08cf801d5c017400859
:1023a800604701235b05d34206d200f082f801d5cd
:1023b8000120c0074042604701d10042f5d0d01744
:0423c8004008704712
:020000040000fa
:1023cc00f8b5050001262c68344201d000200ee03f
:1023dc002000fff717ff070000f0a8f92868a042bb
:1023ec00f1d1b043281a3900fff79afc0120f8bd4f
:020000040000fa
:1023fc00084b02001968002901d1074919601868b7
:10240c00064982188a4201d81a607047012040425e
:10241c00fbe7c04678090020700a0020700c0020f1
:020000040000fa
:10242c0070b5140016000a004e430d00511e8a416f
:10243c005242144001003200180000f02ffa86427c
:0e244c0003d02900fff75ef90400200070bde8
:020000040000fa
:10245a00f8b5050001276c683c4201d000200de068
:10246a002000fff7d0fe060000f061f96b68a34276
:0e247a00f1d128003100fff754fc0120f8bd1d
:020000040000fa
:1024880070b4012676054c005d00e6420cd8ee4299
:102498000ad825430543154303d0994204d19042f5
:0e24a80002d1012070bc7047002070bc70474c
:020000040000fa
:1024b6004a0010d2520d03231b02ff33d21a0ad44c
:1024c60052421f3209d4400dc90208430123db07db
:0e24d6001843d040704700207047d017704761
:020000040000fa
:1024e400094b5b8b5b070dd0074b80221a76793a38
:1024f4005a831b7e5b0705d5034b04211a8d1a7e74
:0c2504000a42fbd17047c04600140042a0
:020000040000fa
:10251000002380290fdb812901dd83290bd10721cd
:10252000136807338b431900083111601a685b6820
:0a25300002604360012318007047a9
:020000040000fa
:10253a00020000234832d356591e0b43137004235a
:10254a004268134005d010231343436001204042e0
:0a255a0070470364c3631800fae73a
:020000040000fa
:1025640010b5084c2368196800f0a3f8012300286b
:1025740005db23680a20196800f020fac30f5842cb
:0825840010bdc046680a0020ea
:020000040000fa
:10258c00f7b5002507000c002e000192019b9e421e
:10259c0001db2800febd62682168380000f074f889
:0825ac0001362d180834f1e797
:020000040000fa
:1025b400f7b5002507000c002e000192019b9e42f6
:1025c40001db2800febd62682168380000f0d1f804
:0825d40001362d180834f1e76f
:020000040000fa
:1025dc00c20f12029d3201000cd001d5494202d427
:1025ec00013a4900fcd5d205080a0906494100d335
:0625fc0001295041704767
:020000040000fa
:10260200012370b544689c43651a102d0ad94218fb
:1026120019432b431160536008320351416010008b
:06262200fef7fbfd70bd98
:020000040000fa
:10262800054a002313609360044951600621116034
:10263800034a93601360704710e000e0ff52070000
:042648004409002021
:020000040000fa
:10264c0010b5064b1b68064b9a6801329a601b68e2
:10265c00002b02d0024a5068984710bd10e000e0f1
:04266c0044090020fd
:020000040000fa
:1026700010b5064b987bc0b23b229a73044b1b6883
:10268000002b02d0024a5168984710bd002c00422e
:0426900050090020cd
:020000040000fa
:1026940010b50c000023002809d10300002a06d03d
:1026a40001212000fff79efa0028f9d00123180029
:0226b40010bd57
:020000040000fa
:1026b60070b50e00050000f03af933000400020080
:1026c60001212800fff7affe001b431e9841404240
:0226d60070bdd5
:020000040000fa
:1026d800054b064a5a801a00d37b5bb2002bfbdb02
:1026e800014b188b80b27047002c00421880ffff06
:020000040000fa
:1026f800054b064a5a801a00d37b5bb2002bfbdbe2
:10270800014b588b80b27047002c00421880ffffa5
:020000040000fa
:102718000fb407b5054b04aa1b6802ca18680192d2
:1027280000f066f803b008bc04b01847680a002037
:020000040000fa
:10273800064b0130c000c258002a05d10200083af1
:10274800d21819184a60c2507047c04610040020b9
:020000040000fa
:102758009d2201000ad002d4013a4900fcd5d205d5
:0e276800080a0906494100d301295041704773
:020000040000fa
:1027760070b50d001400012801d0200070bd2100a5
:0c2786002800fff720fc0028f9d0f6e73f
:020000040000fa
:1027920068076c094c836a9074a07ac000806888cc
:0c27a20000846c820081286e696c2900a4
:020000040000fa
:1027ae0010b50400fff7c2fe002805d1a368e26849
:0a27be00a36163619b18a36210bdc4
:020000040000fa
:1027c800044a138802210b431380d37b5bb2002b8e
:0827d800fbdb7047002c0042fe
:020000040000fa
:1027e000044a138802210b431380d37b5bb2002b76
:0827f000fbdb7047003c0042d6
:020000040000fa
:1027f80013b50400019201aafdf7e2fe6368db0647
:0828080001d50120404216bd7c
:020000040000fa
:10281000d0400b1cd1409c46203ad3401843524232
:1028200063469340184370479140031c90409c4678
:10283000203a9340194352426346d34019437047ac
:020000040000fa
:10284000006810b5002801da002010bdfff7d6fda2
:06285000431cfad1f8e779
:020000040000fa
:022856007047c9
:020000040000fa
:10285800034b892252001a81832292045a607047de
:042868000004004226
:020000040000fa
:10286c00034b00229a601a6801210a431a607047d0
:04287c0010e000e088
:020000040000fa
:10288000252e33662c252e33662c252e336600002c
:042890000d00c04631
:020000040000fa
:1028940010b500f097f8024b1860586010bdc046a0
:0428a40058090020af
:020000040000fa
:1028a800c36a10b5002b01d0984710bd0068fff728
:0428b8005efffae7de
:020000040000fa
:1028bc004a424a41802310b55200db00fff708fa68
:0228cc0010bd3d
:020000040000fa
:1028ce00002310b59a4200d110bdcc5cc454013324
:0228de00f8e719
:020000040000fa
:1028e00003000a7818001a7001310133002af8d168
:0228f00070472f
:020000040000fa
:0228f20070472d
:020000040000fa
:1028f400024a98238021c905d15070470044004101
:020000040000fa
:10290400024a1368013313607047c046640900200b
:020000040000fa
:10291400494e4600696e66004e414e006e616e007f
:020000040000fa
:1029240003001218934200d1704719700133f9e77c
:020000040000fa
:1029340003001a78002a01d1181a70470133f8e706
:020000040000fa
:1029440010b5fff7a5fffff784fffff782ff10bd67
:020000040000fa
:1029540010b5fef7d1f9029a039bfef7cdf810bd2e
:020000040000fa
:0e2964000300413b192b01d820231843704774
:020000040000fa
:0c297400014b82225a6070470040004175
:020000040000fa
:0c298000014b18605960704744090020aa
:020000040000fa
:0c298c00014b1860596070475009002092
:020000040000fa
:0c29980010b50400fff7a0ff200010bde8
:020000040000fa
:0a29a40010b50068fff7e5fe10bd56
:020000040000fa
:0829b000004870477a841e0004
:020000040000fa
:0829b80010b5fef7edff10bda4
:020000040000fa
:0829c00010b5fff743fc10bd48
:020000040000fa
:0829c80000487047ec090020f3
:020000040000fa
:0729d000286e756c6c2900f4
:020000040000fa
:0629d8000120404270479f
:020000040000fa
:0429de00002070471e
:020000040000fa
:0429e200002070471a
:020000040000fa
:0429e6000020704716
:020000040000fa
:0429ec007047c0462a
:020000040000fa
:0429f000002070470c
:020000040000fa
:0200000400807a
:0440000077c700d8a6
:020000040000fa
:0200000400807a
:044004005c00ffff5e
:00000001FF
