:020000040000fa
:10000000f87f002095200000c31900001f1f00008a
:1000100000000000000000000000000000000000e0
:100020000000000000000000000000006f0e000053
:1000300000000000000000006f0e0000a527000077
:100040006f0e00006f0e00006f0e00006f0e0000bc
:100050004d2000006f0e00006f0e00006f0e0000bc
:100060006f0e00006f0e00006f0e00006f0e00009c
:100070006f0e00006f0e00006f0e00006f0e00008c
:100080006f0e00006f0e0000c92700006f0e000009
:100090006f0e00006f0e00006f0e00006f0e00006c
:1000a0006f0e00006f0e00006f0e00006f0e00005c
:020000040000fa
:1000b000f8b5c046f8bc08bc9e4670472d2000002d
:1000c000f8b5c046f8bc08bc9e4670470520000045
:020000040000fa
:1000d000f0b59bb013930b6815900d934b6812917c
:1000e00004938b680e930b691893cb68069313687f
:1000f0000b9353680b98089300220023089902f091
:10010000f6f800280dd10d9b5b073ad408200d9b13
:1001100003400c930e9b07930c9b002b0fd02023c6
:1001200006e0802212069446089b634408932d2320
:10013000069a13700e9b013b079301230c93089bb7
:100140000b995b005b08984a00291ed193421cd191
:10015000069c139ba4460c9a413b624493491000b1
:10016000192b10d802f0ccfc069802f097fc0d9bde
:100170000200009306990e9b159801f0e5fb1bb059
:10018000f0bd2b23d4e70431ece7934203d810d120
:100190000b9b002b0dd0069c139ba4460c9a413b55
:1001a000624482491000192b01d80831dae70c317a
:1001b000d8e7002200230b98089902f011fa0026d4
:1001c0007b4f002833d000230393139802f07efc6a
:1001d000c3b20f93049b002b00dae8e10f9b0a9354
:1001e000672b00d0f1e0049b002b00d1dae1039be8
:1001f000043304db039b049a934200dae0e06523b6
:10020000f9e026002f00039b013303930022694b82
:100210003000390000f082fd0b9a089b04000d00ad
:1002200002f046f80028ecd00024012524e00390d9
:10023000ece7039b1a00604b9a4212da002c10d1b3
:1002400000225e4b0b98089900f068fd00220b908d
:10025000089130003900594b00f060fd2c00060079
:100260000f00544b30003900002201f053f8060013
:100270000f00039b013b039332003b000b9808994e
:1002800002f035f80028d4d19fe700230024109312
:100290001194fee0089609970a9b039d652b00d0f8
:1002a00019e1002517e1002f0ad1002d08da2e23cd
:1002b000069a149901365354079b0137013b079363
:1002c000a21933009446302102e0069ad15401333a
:1002d0009c45fad1079aa319141b069a30305e1c6c
:1002e000d054631e0793002421e0129b14961b69cf
:1002f0000493053bb34200d8f7e0089a099b0b989a
:10030000109901f007f801f021f90490059102f02d
:10031000eff8092800dd092010230d9a134003434c
:10032000c1d10f9b672bbed1002dc9da01348020cb
:100330000006844610990b9a61440b0004980599b5
:1003400000920193089a099b02f0b8fb80231b06d8
:10035000cb180b901093089809990022154b00f0c8
:10036000d9ff013d08900991bbe00d9bdb0600d44d
:10037000bee02e23069a93550136b9e00398390062
:1003800001f088f9069b3031013c1955039839007a
:1003900001f036f9079b0390013b0793bfe0069af3
:1003a000125c1a540138ede00000f07f7c2a000056
:1003b0000000f03f00002440d4feffff0000504347
:1003c000039b002b16da66230a93049b01330493e4
:1003d0000a9b662b10d1039b002b03da0023002617
:1003e000764f03930f9b672b04d0039a049b94468c
:1003f0006344049366230a930023109611970b9d80
:10040000089c1493109a119b2800210000f082ff91
:1004100001f09cf81690179102f06af880212a00ea
:100420000906631819900092019316981799109a6b
:10043000119b02f043fb80231b06cc180022604b6b
:1004400005001098119900f065ff149b1090119110
:1004500001331493149a049b9342d3d10022594b35
:1004600000f05cfc1090119102000b0028002100ac
:1004700001f03dff002800d007e7109a119b2800eb
:10048000210002f0adf8002803d0199bdb0700d44f
:10049000fbe6109a119b0b98089900f03ffb002295
:1004a0000b901091464b3000390000f037fc0b9a4e
:1004b000109b0890099101f079fe002800d1e9e62f
:1004c000039b013303930a9b662b00d0e4e6049b55
:1004d000039d0133049300242700049b0c9eeb1a18
:1004e0001693169b9d4200d0ffe6002f00d13ce7fb
:1004f0000025069b9b1904931d700a9b652b31d127
:10050000189b5c1e069b1d55039bab4202da5b42a7
:100510000393013503230a27189a9b1a0893039b18
:10052000002b00d02ae7089b1b19002b00dd25e7d4
:10053000621e2d23002d00d1023b0699023c8b54f4
:10054000139b413b192b01d845230a93069b19198c
:100550000a9b0b70079b023b0793a64202da0498a2
:1005600002f0cefa03230d9a1340022b00d0fbe5d4
:10057000079b002b00dcf7e5069802f08ffa069b3c
:10058000079a9b180c9a824200dc08e71300069a2f
:100590003021944663441800079a02f077fa00234a
:1005a0000e93e1e50123049321e60623fbe70f9b6d
:1005b000672bfad00a930623049306e70000f03f66
:0805c00000002440000014407b
:020000040000fa
:1005c8000023f0b506001500afb005910193059919
:1005d8000b78002b00d10fe101235b420a930eab8d
:1005e80000240c93802309940b940d930b5d002b2e
:1005f80001d0252b2ad1002c06d02200300001f092
:1006080007ff059b1b190593059b1a78252a00d01f
:10061800e7e0013302930593022310219c46082743
:10062800059803782b2b1bd025d8202b1bd0232be8
:100638001dd02a2b2ad001f0f7fd0b90059b1a78c4
:10064800303a092a33d801330593f7e70134cde767
:100658000122099b80180393134309930590dfe750
:100668000423099a0ee0099b03933b430be0099b83
:1006780003930b4307e02d2bead0302bd9d16246e8
:10068800099b0393134309930130e7e72b68013073
:100698001a1d1b6805902a600b93002b07da099a2c
:1006a8005b420392012203990b934a400992099bea
:1006b800da0702d5022293430993059b1a782e2a5a
:1006c8000ed10022581c0a9205905a782a2a28d15d
:1006d800023305932b681a1d1b682a6003930a933b
:1006e80005a801f0e7fe059b0700187802f0eaf973
:1006f800692800d183e035dc632800d1d6e01bdc13
:10070800252800d1dfe0612859d0252306aa1370d7
:10071800029b0593002309930b93013b0a93023331
:10072800b2e001f081fd0a90059b1a78303a092a57
:10073800d6d801330593f7e7642860d06728e4dc4e
:100748002a00390006a801f08bff002800d1a9e093
:10075800059b09a95a1c05921b7806aa3000fff7c9
:10076800b3fc3de0702800d17de016dc6e2800d196
:1007780091e06f28c9d12b000022390006a800f0ab
:1007880027fe002800d18de0059b06aa013309a9a0
:100798003000059302f0d3f922e0752840d078287c
:1007a8004fd07328b1d1802f00d07be0059b2a68f9
:1007b80001330593131d2b601268002364e02a009f
:1007c800390006a801f04cff002800d16ae0059b1b
:1007d80009a95a1c05921b7806aa300002f0b1f943
:1007e8002418019b1c19a34200dc74e04f223b4be8
:1007f8001a6001235b42019301982fb0f0bd2b00d2
:100808000122390006a800f0e3fd00284ad0059b24
:1008180006aa013309a93000059302f090f9dfe731
:100828002b000022390006a800f0d2fd002839d09c
:10083800059b06aa013309a93000059302f07ff948
:10084800cee72b000022390006a800f0c1fd0028e1
:1008580028d0059b5a1c05921b7806aa09a93000c6
:1008680002f06ff9bce72b000022f02106a800f087
:10087800affd002816d0059b079a01330593069b08
:10088800134306d1164a163209a9300001f0a4fa1a
:10089800a6e77823e1e7019b39001a1906a82b007f
:1008a80001f000f9059b013305939ae7802ff9d1f0
:1008b800059b013305932b681a1d1b682a6006aa3d
:1008c80013700123e0e7802fecd1059b06aa0133c2
:1008d80005931070f5e7019479e6c0469409002065
:0408e800ea280000fa
:020000040000fa
:1008ec00480900201c00000000000000180800202f
:1008fc00c000000000000000640900200c00000093
:10090c00000000007009002008000000000000003a
:10091c009e0900200100000000000000800900205a
:10092c0004000000000000009c09002002000000f0
:10093c0000000000840900200400000000000000fa
:10094c0018060020000200000000000088090020aa
:10095c0004000000000000009f09002001000000be
:10096c0000000000a00900200100000000000000b1
:10097c00a20900200200000001000000ffff00009f
:10098c00a10900200100000000000000280900203f
:10099c0020000000000000008c0900200400000072
:1009ac0000000000d80800205000000000000000eb
:1009bc00a40900206c00000001000000b009002018
:1009cc00ac090020b0090020000000002500000048
:1009dc0008000020000400000000000000000000df
:1009ec0000000000000000000000000000000000fb
:1009fc0000000000000000004f2b00000000000071
:100a0c00000000000000000000000000151b0000aa
:100a1c0000000000000000000000000000000000ca
:100a2c00000000000000000000000020080400008e
:100a3c0000000000700a00202000000001000000ef
:100a4c000100000003000000000000000000000096
:100a5c0000000000000000000000000078090020e9
:100a6c007809002008000000000000009009002018
:100a7c0004000000000000009409002004000000a5
:100a8c00000000000804002010020000000000001c
:100a9c00100a0020600000000100000001000000ae
:100aac000300000000000000000000000000000037
:100abc0000000000000000008d1c00000000000081
:100acc0000000000000000000d2b00004b2a00006d
:100adc00000000000000000000000000000000000a
:100aec0000000000000000000000000000000000fa
:100afc000000000000000000000000009809002029
:100b0c0004000000000000000000000000000000d5
:020000040000fa
:100b1c00f0b40125ed070f005f405ad48b4200d191
:100b2c00824205d950404240504059404b405940b8
:100b3c004e18760ddf187f0d3bd0741c640529d040
:100b4c00f41b352c26d80e0ddb022b43db0ac90215
:100b5c002943c9121700202c1ed2e741e24057400e
:100b6c00e3415a40a340e3405a40002480185941c5
:100b7c000ad3b21c520521d0c207012f62411700c3
:100b8c004008cb0718434908013636054208af41e7
:100b9c0060417141f0bc7047203c06d01f00e7411a
:100bac00e3405f400024012a6741c0186141ebd348
:100bbc00dfe7002eeed129400020ebe701363105ae
:100bcc000020e7e7e742e5d10020c143090dc90445
:100bdc00e0e76b400e00871a9e4104d26e40c01baa
:100bec00b141d21973414e18df18ac0ae642e9d272
:100bfc00760d7f0d31d0f41b362ccbd8b4460e0db0
:100c0c00db022b43db0ac9022943c90a012c32d867
:100c1c0004d1d4075208df073a435b08ef0a644259
:100c2c00904199411ed0002239424dd124194041a6
:100c3c0049410124394204d1013400184941394257
:100c4c00fad06246a24204d9361b013e36058919f8
:100c5c00a0e7f10ac90700209ce736429ad1002090
:100c6c00002197e70200224394d0b842ded2010063
:100c7c0020002024e3d1202c13dd203ce24117007e
:100c8c00a240e2405740e3415a40a340e3405a405f
:100c9c00012fbf410137174300227c4298419141fb
:100cac000ce01700e741e2405740e3415a40a340b3
:100cbc00e3405a407c429041994100220f0303d2f9
:100ccc00013e241940414941013e36054708ac41db
:080cdc0050417141f0bc70476a
:020000040000fa
:100ce40008d1002806d1f54204d801d3002a01d145
:100cf4006d0d09d10020c143090dc904f0bdf9d11e
:100d04001242f7d1640df5d00020c14349054908ca
:100d1400a6e000206146f0bdf0b50127ff070e00f4
:100d24005e403e40b446be0a4c18dd18f442d7d2a9
:100d3400f542e4d2640decd06d0dead06419c90219
:100d44003943460dc0023143db023b43db0a10b496
:100d54008e4685b297b26f43140c6c433e0ca419b3
:100d6400260c2404bfb227439cb26c43a419190c6b
:100d74006943250ca4b249190d04090c6419000c2b
:100d840095b245433e0c76193743bfb2360c150c69
:100d94004543ad19a6b2240cad192e0437432e0ccd
:100da40036199db24543ad19acb22e0c89191d0cf0
:100db40045436d182e04290c3443704680b295b215
:100dc40045433e0c76193743bfb2360c150c4543e8
:100dd400ad19a6b2ad19240c2e0437432e0c3619c6
:100de4009db24543ad19acb22e0c89191d0c454377
:100df4006d182e043443290c75462d0c90b26843ab
:100e04003e0c80190604bfb23e43070ca0b23f1843
:100e1400120c6a43d019020c80b2240ca4189ab2a2
:100e24006a43121914042043120c89181b0c6b43d7
:100e3400c91810bc01273d05294203d1b619404108
:100e44004941013cff077d0d013d641b0bdb6d0037
:100e5400ac4209da240500254208be4168416141db
:0a0e640066463143f0bd54e74ee747
:020000040000fa
:020e6e00fee79d
:020000040000fa
:100e7000f0b587b0039003a801f0faf9002802da70
:100e8000002007b0f0bd039b1b095d1e202d09d972
:100e90004f49023b4f4a8b4224d8db08d318043b0e
:100ea0001d7801352a000120002101f069fd002490
:100eb00043428c4100930194474f00983a687b6805
:100ec0001040020001990b401a433fd1039b05a833
:100ed0001033059301f060fd002809d10c223f4b2f
:100ee0001a60cee7db09d318043b1d781135d9e72a
:100ef0003b490c68a04206d0059b0400103b0593bb
:100f00000123103483600125059be2180a602b43fe
:100f1000083a083c28c26360002cb1d0200001f0e0
:100f200001fb00280bd023686168ab43e31a5a68c1
:100f3000aa4352185a606168a94362501c002000fd
:100f4000039901f00afc200008309ae7214a25495c
:100f50003c32002831d1584203404b43db0ed65c73
:100f60002036300001f094fc731cdb00fc58083b79
:100f7000fb189c42a0d0272e25dd0235ae4201dcb5
:100f80003f2e20d101226368039f9343dd1b28007d
:100f9000009301f0e9f9864215d1e268a168e319ee
:100fa000da60996093609a68d360012217431f60ea
:100fb0005d60009be5506760c1e7434203404b43df
:100fc000db0ed65ccde73100200000f059ffb6e71c
:100fd000ff010000301c00001004002094090020d4
:080fe0000804002029e66b075c
:020000040000fa
:100fe800f0b58bb0c30604d4484bff229a730bb0fc
:100ff800f0bd474e347801f017fc464d640060534d
:1010080001f022fc347863005b5b434a12889a4201
:1010180001d9414a1380414a12889a4201d23f4a73
:101028001380651cedb23a4b1d703d4b1b78002bad
:10103800ddd03c4b1b78002bd9d0002d63d0354a2e
:101048000020002100e019001388c0184b1cdbb2f7
:101058000232a142f7d101f027fc041c280001f05c
:1010680065fb011c201c00f01bfb041c01f050fd5b
:1010780001f01afc211c00f013fb071c264d2888e0
:1010880001f012fc059001f043fd0690234c2088e6
:1010980001f00afc079001f03bfd0600381c01f046
:1010a8005ff808900991204f300001f0fdfb011c0a
:1010b800079800f0f5fa1d4900f0e9f901f050f839
:1010c80002900391069801f0effb011c059800f0cf
:1010d800e7fa164900f0dbf901f042f800900191b7
:1010e800089a099b380001f0bffb3800103001f066
:1010f800e1fa0023064a1370094a1370012252428a
:101108002a80238073e70020a5e7c046002c004210
:101118009e09002018060020a20900209c09002032
:101128009f090020a0090020d829000000007a4467
:020000040000fa
:10113800334b0e229a821a000223d1680b42fcd04c
:101148002f4b00229a61da642e4a9a6444220221c3
:10115800995418004e31413a435c1340032bfbd19c
:10116800274a938c80218b4393841023d1680b42a8
:10117800fcd0254b1b689b0e3f2b3fd09b02802247
:10118800920013431e4a93621023d1680b42fcd08d
:101198001b4b02229a841a001023d1680b42fcd000
:1011a8001a4b1b4a5a601b4a9a601a0053785bb262
:1011b800002bfbdb154b184a5a601a0053785bb2b8
:1011c800002bfbdb114b154a5a60154a9a601a002e
:1011d80053785bb2002bfbdb0c4b124a5a80124a45
:1011e8005a80124a5a80124a5a80124a5a80124b1e
:1011f800124a1a62024b00221a627047203bbde76e
:1012080000080040f4050e0024608000000c004037
:101218000108010001190000000701000207010090
:10122800021f0000054000000740000017400000b2
:101238001b4100001d4200000004004022880100fc
:020000040000fa
:10124800f7b5002858d00838436801221e00964395
:1012580085192a680400934200d0ffde01276b68d5
:10126800226813403b420ed1200001f057f90028b4
:1012780043d1280001f099f90028f0d06b68bb43ee
:10128800f618ed18ebe73b003343636030002b6042
:1012980001f066f8019001f0f7fa6b6822681340d4
:1012a8003b42e1d0184b019a1868596801f058fb85
:1012b800384212d1019a0120002101f05dfb0b0098
:1012c800002804d0104a126802430f480260002b1d
:1012d80003d00d4a53680b435360019b0a4a0133fc
:1012e800db00d3181a005b68083a66602e60e3607a
:1012f800a260d460e3689c60f7bd2368bb43e41a2e
:0c1308006368bb43f618b4e71004002033
:020000040000fa
:10131400f0b40125ed070c005c402c40a446ae0a55
:101324004c18df18f4423dd2f74245d2640d4cd03c
:101334007f0d3cd0e41bc9022943cf0adb022b43b7
:10134400db0a0600b61a9f4104d2013cb6197f415c
:10135400b6185f416812800d241838dd00188442e5
:1013640025d8e80c0021b6197f41b61a9f4103d352
:1013740040414941f7d304e0b6185f4100184941a0
:10138400f1d32405b6197f41b61a9f4105d33743db
:10139400c20717430022012f5041614162461143a5
:1013a400f0bc70470cd100280ad1f74208d20020c3
:1013b400c143490d0905f1e7002a01d1f74206d0de
:1013c4000020c143090dc904eae77f0df8d00020cd
:0413d4006146e5e7a2
:020000040000fa
:1013d80010b588293cd015dc81294dd003dc802943
:1013e8004ad0002010bd822911d08429f9d119686a
:1013f800002a26d00a1d1a6000228b5e0360db17c4
:10140800436011e0a02930d010dc9029e9d1196897
:101418000724002a2ed00919a1430a0008321a60ad
:101428000b684c68036044600120dbe7c02901d0e9
:10143800f029d6d11a68111d1960136803600023ba
:10144800dee70c1d1c600b689bb203604260ebe793
:101458001968002a04d00a1d1a600023cb56cde76c
:101468000c1d1c600b68dbb2efe71a68111d1960d0
:101478001368c3e70731cfe71968002a03d00a1dac
:0e1488001a600b68bae70c1d1c600b68dde7ec
:020000040000fa
:1014960030b405004d400124e407254042004b00ce
:1014a600120e32d01b0e3cd0ff2a33d0ff2b3fd07a
:1014b600d21800022043000a09022143090ac4b2d5
:1014c6004c43000ac3b24b43000a4843210a5b1847
:1014d600190a091801d44900013a080a7f3a2adb99
:1014e600fe2a0fd2d2051c43240601d00124214333
:1014f600c9b280295041802901d1400840002843c3
:1015060030bc7047ff20c005f9e71b0eff2b0ad041
:101516002800f5e7400206d1ff2bf3d1490202d19c
:10152600f0e7ff2af4d17f2000010c300005e7e741
:101536004902f8d1e6e743020132e9d15b120233f0
:06154600e6d9d805e4e738
:020000040000fa
:10154c004b005b0d264af0b55c1e944238d8254af8
:10155c009e1825d4332e22dc234a9b1827d4234ae9
:10156c00da400700214b9743f3403c000f00024048
:10157c009f4319403d000a430fd0002f0dda202362
:10158c005b42f11824d480204003c8400200802123
:10159c004903f1400b00a4185d4120002900f0bd67
:1015ac000020002901db0021f9e71149f7e720228f
:1015bc000e4b921b934001225242f2401a43d0e749
:1015cc00002becd10022c90fcb0710001900e6e765
:1015dc0020218020891b400388400200d7e7c046a9
:1015ec00fd07000001fcffffe1fbffffffff0f0009
:0415fc000000f0bf3c
:020000040000fa
:10160000002941d010b4041c4c40a4460123002200
:10161000002900d54942002800d5404288422cd3f9
:1016200001242407a14204d2814202d209011b01f4
:10163000f8e7e400a14204d2814202d249005b00f3
:10164000f8e7884201d3401a1a434c08a04202d35b
:10165000001b5c0822438c08a04202d3001b9c089c
:101660002243cc08a04202d3001bdc0822430028fe
:1016700003d01b0901d00909e3e7101c6446002cc4
:1016800000d5404210bc704701b5002001f062fa5d
:1016900002bdc0460029f7d003b5fff7b3ff0ebc6b
:0816a0004243891a1847c046b5
:020000040000fa
:1016a80030b405004d400124e407254042004b00ba
:1016b800120e26d01b0e34d0ff2a2dd0ff2b35d08a
:1016c800d21a000220430902214343084908a00d09
:1016d8005b1a02d2013a5b005b185b008b4200d3b5
:1016e8005b1a4041f9d37f3222ddff2a06d2d205a8
:1016f800c91a8b425041284330bc7047ff20c005af
:10170800f9e71b0e03d0ff2b12d1490210d07f201e
:1017180000010c300005efe74002f8d1ff2bedd1b6
:10172800f5e7ff2aead14002f1d1e7e74902eed115
:041738002800e1e7bd
:020000040000fa
:10173c00002934d00123002210b488422cd3012478
:10174c002407a14204d2814202d209011b01f8e70d
:10175c00e400a14204d2814202d249005b00f8e7c6
:10176c00884201d3401a1a434c08a04202d3001bf2
:10177c005c0822438c08a04202d3001b9c08224325
:10178c00cc08a04202d3001bdc082243002803d063
:10179c001b0901d00909e3e7101c10bc704701b507
:1017ac00002001f0d1f902bd0029f8d003b5fff7f4
:0c17bc00c1ff0ebc4243891a1847c0460a
:020000040000fa
:1017c800f0b51600050002278369426987b00293c5
:1017d800d31a03939b1904910596019302ac3a001e
:1017e8002100286800f08eff019b984208d1ab6861
:1017f800ea68ab619a18aa626b61300007b0f0bd65
:1018080000280cda102200236968ab620a43ab6136
:101818006b616a60022f12d06368f61aede7019bcc
:101828001b1a01936368984202d9c01a0834013f11
:1018380023681b1823606368181a6060cfe71e00ce
:02184800dbe7dc
:020000040000fa
:02184a007047e5
:020000040000fa
:10184c001d4a137801210b43137053785bb2002ba4
:10185c00fbdb194904238b610022ca61033b4b60fb
:10186c00cb60164b1a7210321a7520201a540c3099
:10187c001a540c301a540c301a540c301a540c30b4
:10188c001a540c301a540c301a540c301a540c30a4
:10189c001a540c301a540c301a540c301a540c3094
:1018ac001a540b78022213430b700a0053785bb264
:1018bc00002bfbdb7047c0460018004018080020c6
:020000040000fa
:1018cc00f8b5846a05000f001600002c0ad0ab6a2c
:1018dc006a699b1ab3420cd2320039002800fff718
:1018ec006dff05e001f009f803002000002beed09d
:1018fc00f8bd002ef0d02b0034331b785bb2002bdc
:10190c001adb3400dbb2621eb95c994212d12200a0
:10191c0039002800fff752ffa042e9d33f19341bce
:10192c0022003900686901f078f86b6930001c19e5
:0c193c006c61dde7141ee6d13400f1e719
:020000040000fa
:10194800f0b51d00012389b014000e9a06001a4054
:101958000391029201d1a5420ad8220003993000ce
:1019680000f056fda54203d82500280009b0f0bdb7
:101978002f1b01973a00102f00d91022202104a80c
:1019880001f080f8019b0f2b0ed80f2204a93a40d2
:10199800300000f03dfd029b002be6d122000399a8
:1019a800300000f035fde0e7102204a9300000f017
:0a19b8002ffd019b103b0193e4e7b3
:020000040000fa
:0219c200fee73e
:020000040000fa
:1019c40070b501f049f8002800d170bd174c184dce
:1019d40028782018012100f085f92b78e35c1a009f
:1019e400203a5a2a05d8532b0cd0732b0ad03f2bfc
:1019f4000bd00f4b1b780133dbb2202b12d00c4ad7
:101a04001370e2e700f098f9f3e70a4c200000f0c5
:101a140053fe2000143000f04ffe20003c3000f054
:101a24004bfee6e7024b00221a70cee7280900209d
:081a3400a1090020781b00004d
:020000040000fa
:101a3c000021f0b5174b184a934208d30027174ad8
:101a4c0013685168002b05d1002903d1f0bd197022
:101a5c000133f1e7100095680c305c18002d16d09e
:101a6c000b25ed1a5219a3420ad10b000322134085
:101a7c005a1e934189085918890040180200dfe763
:101a8c005d1cae5c1e702b00ede71f700133a34292
:101a9c00fbd1f3e70000002000000020ec08000060
:020000040000fa
:101aac0010b584291fd007dc812915d0822922d0ba
:101abc00802911d0002010bd90291cd008dc882969
:101acc00f8d119680c1d1c600b6803601a7010e0cb
:101adc00a02901d0c029edd119680c1d1c600b6820
:101aec0003601a6005e019680c1d1c600b6803602c
:101afc001a800120dfe719680c1d1c600b6803605d
:081b0c001a60d2175a60f4e7d9
:020000040000fa
:101b14007fb51600c2680d0013000091591e8b4159
:101b2400f31a019383680400039269460222006851
:101b3400029300f0d5fd002808dc18220823024097
:101b44005340626813436360060010e0019b8342c4
:101b5400fad2a268c01ae3681018e2632064002b6a
:101b640005d0531ce3631378ad19013d2b7030008d
:041b740004b070bd8c
:020000040000fa
:101b78000d0a4d656e7520436f6d6d616e64733a25
:101b88000d00000073202d205374617274202f20e3
:101b980053746f7020746865206461746120636f8a
:101ba8006c6c656374696f6e0d0000003f202d201a
:101bb8005468697320636f6d6d616e64202d2070a9
:0c1bc80072696e7473206d656e750d00ff
:020000040000fa
:101bd40000230e4a10b513600d4a13600d4a1360ba
:101be4000d4a13600d4a13600d4a536213610133a9
:101bf400936000f059ff00f044fc0a4c0a4b9c42ed
:101c040000d310bd08cc9847f8e7c04690090020df
:101c1400e4080020e0080020d8080020dc080020a8
:0c1c2400e8080020bc000000c000000028
:020000040000fa
:101c30002021222324242525262627272828282852
:101c4000292929292a2a2a2a2b2b2b2b2c2c2c2cec
:101c50002c2c2c2c2d2d2d2d2d2d2d2d2e2e2e2eb4
:101c60002e2e2e2e2f2f2f2f2f2f2f2f000117022a
:101c70001d1813031e1b190b1408040d1f161c122c
:0c1c80001a0a070c1511090610050f0eba
:020000040000fa
:101c8c0070b504000d00002801d1002070bd436820
:101c9c009b0607d543698269934215d80023a3623a
:101cac00a3616361e16b236c994204d2c91a0122ce
:101cbc00206800f04bff00232364e3639d42e4d0d3
:101ccc00206800f037ffe1e70022c36a1100984753
:0c1cdc006369002be2d101204042d7e7f1
:020000040000fa
:101ce800f8b505000c000020002d20d000f0a2fc63
:101cf800002c17d000200e4a0421072605e0178d76
:101d08004300ef52013084420dd0137e0b42fcd0c9
:101d1800538b334207d153683340012befd0138dd7
:101d28002b54efe72000201a44426041c0b2f8bdae
:041d38000014004251
:020000040000fa
:101d3c000d4b1b78002b03d00b4b00221a707047f5
:101d4c00094b01221a700023084a1370084a1370b9
:101d5c00084a012149421180074a1380074b1a682f
:101d6c00074b1a60ebe7c046a00900209e09002033
:101d7c009f090020a20900209c0900208409002052
:041d8c0088090020a2
:020000040000fa
:101d900010b5124b802212021a614f22062199546b
:101da0004e3a50315a5401315a54002137201954b7
:101db000043022241c548020c0055e341851103495
:101dc0001851c0201a5401301a54dd3299542e3a59
:101dd000813898540f32995410bdc04600440041d8
:020000040000fa
:101de000f0b50f0087b0039015001049072204a832
:101df0001c0000f018febb687e6802933f68002d4f
:101e000000d104ad002c03d1280000f047fe0400ef
:101e1000002e02dbb44200d934000097029b22005e
:101e200029000398fff790fd07b0f0bd382b0000a4
:020000040000fa
:101e300070b5040016001d00022a1cd043689b06e2
:101e400019d4002908d1002d01d18025ed002800ea
:101e50000830fff70df8010020236268a1601343ea
:101e600063602300e5603433ff22012e00d10a2293
:101e70001a70024be362002070bdc046cd1800000e
:020000040000fa
:101e800070b5c668856804000a00ae4211d1012011
:101e9000002100f075fdc043c943431c03d00b4b28
:101ea0001a68104018604b1c03d0084a5368194048
:101eb0005160012319006268b56011439a43ee60d6
:101ec0006160a41822681343236070bd10040020d1
:020000040000fa
:101ed00037b56b46dd1d836a04002970002b0cd0da
:101ee0006369a26a93420fd3e36a012229002000aa
:101ef0009847012805d1287805e000f004fd002866
:101f0000eed0012040423ebd2200343212782878c3
:0e1f100052b29042e8d05a1c62611870f3e79a
:020000040000fa
:021f1e00fee7dc
:020000040000fa
:101f200010b5104b06225a600f4b1b681868002131
:101f300000f070fdfff72cfffff7fef800f0f6f958
:101f400000f04efa00f082fd00f0c8fd00f030fd18
:101f500000f016fcfff77afc00f096fa00f048f962
:0c1f600010bdc04600400041a809002050
:020000040000fa
:101f6c0010b50020fff7d6ff00210d4800f0b6fd9c
:101f7c0000210c4800f0b8fd00f01efd00f0cafc7a
:101f8c0000f0d4fc084c200000f092fb20001c3028
:101f9c0000f08efb00f09cf8fff70efdfae7c04650
:0c1fac006d2a0000e90f0000b81f0000c3
:020000040000fa
:101fb8004d6f746f722050756c7365204d65617339
:101fc8007572656d656e740d00000000467265716e
:101fd8002028487a292c204d696e20506572696f37
:101fe8006420286d73292c204d6178205065726912
:0c1ff8006f6420286d73290d0a0d000095
:020000040000fa
:1020040010b5064c2378002b07d1054b002b02d0ca
:10201400044800e000bf0123237010bd48090020dc
:102024000000000000000000044b10b5002b03d09a
:102034000349044800e000bf10bdc0460000000092
:082044004c090020000000001f
:020000040000fa
:10204c00f0b5c64600b50e4d00240e4f0123984640
:10205c0004e03e6101340c35102c0ed02a7ae3b228
:10206c009a42f7d13b694646a6401e42f2d02b68f5
:10207c00002beed068689847ebe704bc9046f0bda7
:08208c001808002000180040b4
:020000040000fa
:1020940010b50a4b98470a4b984700f03ffd094b8f
:1020a400ff229343084a9360084b9847084b98478c
:1020b400084b9847fff758fffee7c0464b1800004f
:1020c4004b1800000000000000ed00e0d51b0000ec
:0820d4004b1800004b1800003e
:020000040000fa
:1020dc000c4b1b680c4a12689a1a132a06d90a4a26
:1020ec0013600a499c228020c0058850084a126857
:1020fc009a1a132a04d9074a01211170044a136051
:10210c007047c0468409002080090020004400412b
:08211c00880900209f09002042
:020000040000fa
:1021240070b5002818d0002918d000250c4a0124c5
:10213400072605e06b00c35a13850135a94209d06f
:10214400137e2342fcd053683340012bf2d0435d0d
:102154001385f2e7012070bd0020fce70120fae7b7
:042164000014004221
:020000040000fa
:1021680041008c46012212068a420bd809093823fd
:102178001b06c918c30fdb07194340076346da4239
:1021880004d27047c10fc9070020704703d1382314
:102198001b06c918704738231b06c9180122d20428
:0421a8001143704728
:020000040000fa
:1021ac0030b401256d054c00e54215d85c00e542c4
:1021bc0012d80c001c436400044314430fd005d206
:1021cc0082428b418041013030bc70479042994132
:1021dc008041013030bc7047002030bc704701207a
:0421ec0030bc70474c
:020000040000fa
:1021f000bff35f8f62b60c4bc12189005a58ff2094
:1022000082433f3802435a5010221a60c420800093
:102210001a5806491140c02212040a431a5080225b
:10222000d2021a607047c04600e100e0ffff00ffe5
:020000040000fa
:10223000030010b51a78202a0dd01100093904299d
:1022400009d900212b2a02d02d2a01d101310133d5
:1022500000200a2404e00133ece760430133801ad4
:102260001a78303a092af8d9002900d1404210bd25
:020000040000fa
:102270000c4a036810b5546a0b4a591e121b91424e
:102280000bd9002b05d00c220120084b40421a60cc
:1022900010bd102202600020fae70f22173393438b
:1022a0000360f8e7e8080020efffff7f94090020b3
:020000040000fa
:1022b00030b401256d054c00e54215d85c00e542bf
:1022c00012d80c001c436400044314430cd005d204
:1022d00082428b418041404230bc704790429941dc
:0e22e0008041404230bc7047002030bc704747
:020000040000fa
:1022ee0030b401256d054c00e54215d85c00e54281
:1022fe0012d80c001c436400044314430cd005d2c6
:10230e00904299418041404230bc704782428b419d
:0e231e008041404230bc7047002030bc704708
:020000040000fa
:10232c000b4b01221a801a00d37b5bb2002bfbdb18
:10233c00074b60221a80074a1a83074a5a833b22aa
:10234c009a731a00d37b5bb2002bfbdb7047c04641
:0c235c00003c0042c8640000c4090000fe
:020000040000fa
:102368000309013b1800202b07d90a4a934205d8d4
:102378000948db08c318043b18787047e0223f205f
:1023880052019342f9d80448db09c318043b187872
:0c2398001030f2e7ff010000301c0000d4
:020000040000fa
:1023a4000b00496810b50200890603d4190000f037
:1023b4004df810bd190034310978c0b249b28142d8
:1023c40007d059699c6aa14203d24c1c5c610a7013
:0c23d400efe711001800fff779fdeae7c1
:020000040000fa
:1023e0000a4b0b4a1a600b4a9a81c02292025a6029
:1023f0001a00d369002bfcd1044a136802210b4355
:102400001360d369002bfcd17047c0460014004212
:08241000040110402bf6ffff50
:020000040000fa
:10241800436870b50400d80510d52569954200d9e0
:1024280015002a00606900f0fafa226963695b19ed
:10243800551b0022636125611a7070bddb06fcd450
:08244800200000f0d9faf8e7ca
:020000040000fa
:1024500013b50b006a46d41d5a68c1b22170d2056b
:1024600005d55a69c0b2541c5c61117016bd0122b9
:102470002100180000f0c4fa002801d02078f5e708
:0624800001204042f2e7da
:020000040000fa
:0224860070479d
:020000040000fa
:102488000a4b01221a801a00d37b5bb2002bfbdbbc
:10249800064b00221a80302199710b395981163167
:1024a80099732b395973024b1a607047002c0042fc
:0424b8007009002087
:020000040000fa
:1024bc00f0b5050000200a4c4200165d002e02d13a
:1024cc00a2185078f0bd296801300f78c0b2b7421d
:1024dc0003d1a2180131507829600a28ecd9f1e710
:0424ec00ea280000da
:020000040000fa
:1024f000f4464a1805d200f08cf801d5c017400800
:10250000604701235b05d34206d200f082f801d573
:102510000120c0074042604701d10042f5d0d017ea
:0425200040087047b8
:020000040000fa
:10252400f8b5050001262c68344201d000200ee0e5
:102534002000fff717ff070000f0a8f92868a04261
:10254400f1d1b043281a3900fff798fc0120f8bdf7
:020000040000fa
:10255400084b02001968002901d10749196018685d
:10256400064982188a4201d81a6070470120404205
:10257400fbe7c04698090020980a0020980c002028
:020000040000fa
:1025840070b5140016000a004e430d00511e8a4116
:102594005242144001003200180000f02ffa864223
:0e25a40003d02900fff7c8f80400200070bd26
:020000040000fa
:1025b200f8b5050001276c683c4201d000200de00f
:1025c2002000fff7d0fe060000f061f96b68a3421d
:0e25d200f1d128003100fff752fc0120f8bdc6
:020000040000fa
:1025e00070b4012676054c005d00e6420cd8ee4240
:1025f0000ad825430543154303d0994204d190429c
:0e26000002d1012070bc7047002070bc7047f2
:020000040000fa
:10260e004a0010d2520d03231b02ff33d21a0ad4f2
:10261e0052421f3209d4400dc90208430123db0781
:0e262e001843d040704700207047d017704707
:020000040000fa
:10263c00094b5b8b5b070dd0074b80221a76793ade
:10264c005a831b7e5b0705d5034b04211a8d1a7e1a
:0c265c000a42fbd17047c0460014004247
:020000040000fa
:10266800002380290fdb812901dd83290bd1072174
:10267800136807338b431900083111601a685b68c7
:0a2688000260436001231800704750
:020000040000fa
:10269200020000234832d356591e0b431370042301
:1026a2004268134005d01023134343600120404287
:0a26b20070470364c3631800fae7e1
:020000040000fa
:1026bc0010b5084c2368196800f0a3f80123002812
:1026cc0005db23680a20196800f028fac30f58426a
:0826dc0010bdc0468c0a00206d
:020000040000fa
:1026e400f7b5002507000c002e000192019b9e42c5
:1026f40001db2800febd62682168380000f074f830
:0827040001362d180834f1e73d
:020000040000fa
:10270c00f7b5002507000c002e000192019b9e429c
:10271c0001db2800febd62682168380000f0d1f8aa
:08272c0001362d180834f1e715
:020000040000fa
:10273400c20f12029d3201000cd001d5494202d4cd
:10274400013a4900fcd5d205080a0906494100d3db
:062754000129504170470d
:020000040000fa
:10275a00012370b544689c43651a102d0ad94218a2
:10276a0019432b4311605360083203514160100032
:06277a00fef765fd70bdd5
:020000040000fa
:10278000054a0023136093600449516006211160db
:10279000034a93601360704710e000e0ff520700a7
:0427a00064090020a8
:020000040000fa
:1027a40010b5064b1b68064b9a6801329a601b6889
:1027b400002b02d0024a5068984710bd10e000e098
:0427c4006409002084
:020000040000fa
:1027c80010b5064b987bc0b23b229a73044b1b682a
:1027d800002b02d0024a5168984710bd002c0042d5
:0427e8007009002054
:020000040000fa
:1027ec0010b50c000023002809d10300002a06d0e4
:1027fc0001212000fff772fa0028f9d001231800fc
:02280c0010bdfd
:020000040000fa
:10280e0070b50e00050000f042f93300040002001e
:10281e0001212800fff7affe001b431e98414042e6
:02282e0070bd7b
:020000040000fa
:10283000054b064a5a801a00d37b5bb2002bfbdba8
:10284000014b188b80b27047002c00421880ffffac
:020000040000fa
:10285000054b064a5a801a00d37b5bb2002bfbdb88
:10286000014b588b80b27047002c00421880ffff4c
:020000040000fa
:102870000fb407b5054b04aa1b6802ca1868019279
:1028800000f066f803b008bc04b018478c0a0020ba
:020000040000fa
:10289000064b0130c000c258002a05d10200083a98
:1028a000d21819184a60c2507047c0461004002060
:020000040000fa
:1028b0009d2201000ad002d4013a4900fcd5d2057c
:0e28c000080a0906494100d30129504170471a
:020000040000fa
:1028ce0070b50d001400012801d0200070bd21004c
:0c28de002800fff720fc0028f9d0f6e7e6
:020000040000fa
:1028ea0068076c094c836a9074a07ac00080688873
:0c28fa0000846c820081286e696c29004b
:020000040000fa
:1029060010b50400fff7c2fe002805d1a368e268ef
:0a291600a36163619b18a36210bd6a
:020000040000fa
:10292000044a138802210b431380d37b5bb2002b34
:08293000fbdb7047002c0042a4
:020000040000fa
:10293800044a138802210b431380d37b5bb2002b1c
:08294800fbdb7047003c00427c
:020000040000fa
:1029500013b50400019201aafdf736fe6368db0699
:0829600001d50120404216bd23
:020000040000fa
:10296800d0400b1cd1409c46203ad34018435242d9
:1029780063469340184370479140031c90409c461f
:10298800203a9340194352426346d3401943704753
:020000040000fa
:10299800006810b5002801da002010bdfff7d6fd49
:0629a800431cfad1f8e720
:020000040000fa
:0229ae00704770
:020000040000fa
:1029b000034b892252001a81832292045a60704785
:0429c00000040042cd
:020000040000fa
:1029c400034b00229a601a6801210a431a60704777
:0429d40010e000e02f
:020000040000fa
:1029d800252e33662c252e33662c252e33660000d3
:0429e8000d00c046d8
:020000040000fa
:1029ec0010b500f09ff8024b1860586010bdc0463f
:0429fc007809002036
:020000040000fa
:102a0000c36a10b5002b01d0984710bd0068fff7ce
:042a10005efffae784
:020000040000fa
:102a14004a424a41802310b55200db00fff706fa10
:022a240010bde3
:020000040000fa
:102a2600002310b59a4200d110bdcc5cc4540133ca
:022a3600f8e7bf
:020000040000fa
:102a380003000a7818001a7001310133002af8d10e
:022a48007047d5
:020000040000fa
:022a4a007047d3
:020000040000fa
:102a4c00024a98238021c905d150704700440041a7
:020000040000fa
:102a5c00024b187e4007c00f7047c046001400425e
:020000040000fa
:102a6c00024a1368013313607047c0468409002082
:020000040000fa
:102a7c00494e4600696e66004e414e006e616e0016
:020000040000fa
:102a8c0003001218934200d1704719700133f9e713
:020000040000fa
:102a9c0003001a78002a01d1181a70470133f8e79d
:020000040000fa
:102aac0010b5fff79dfffff77cfffff77aff10bd16
:020000040000fa
:102abc0010b5fef72df9029a039bfef729f810bd0d
:020000040000fa
:0e2acc000300413b192b01d82023184370470b
:020000040000fa
:0c2adc00014b82225a607047004000410c
:020000040000fa
:0c2ae800014b1860596070476409002021
:020000040000fa
:0c2af400014b1860596070477009002009
:020000040000fa
:0c2b000010b50400fff798ff200010bd86
:020000040000fa
:0a2b0c0010b50068fff7ddfe10bdf4
:020000040000fa
:082b1800004870477a841e009a
:020000040000fa
:082b200010b5fef78bff10bd9c
:020000040000fa
:082b280010b5fff73bfc10bde6
:020000040000fa
:082b300000487047100a002064
:020000040000fa
:072b3800286e756c6c29008a
:020000040000fa
:062b400001204042704735
:020000040000fa
:042b460000207047b4
:020000040000fa
:042b4a0000207047b0
:020000040000fa
:042b4e0000207047ac
:020000040000fa
:042b54007047c046c0
:020000040000fa
:042b580000207047a2
:020000040000fa
:0200000400807a
:0440000077c700d8a6
:020000040000fa
:0200000400807a
:044004005c00ffff5e
:00000001FF
